:020000041000EA
:10000000002008205B0100101B0100101D010010E2
:100010001101001011010010110100101101001058
:100020001901001019010010190100101F01001022
:10003000110100101901001021010010230100100E
:100040001101001011010010110100101101001028
:100050001101001011010010110100101101001018
:100060001101001011010010110100101101001008
:1000700011010010110100101101001011010010F8
:1000800011010010110100101101001011010010E8
:1000900011010010110100101101001011010010D8
:1000A00011010010110100101101001011010010C8
:1000B00011010010110100101101001011010010B8
:1000C00011010010110100101101001011010010A8
:1000D0001101001011010010110100101101001098
:1000E0001101001011010010110100101101001088
:1000F0001101001011010010110100101101001078
:100100001101001011010010110100101101001067
:10011000EFF30580103800BE00BE00BE00BE00BE7A
:1001200000BE00BEF2EB8871B49C0110D49C01109B
:100130009C01001090A31AE7D3DEFFFF42012110BB
:10014000FF010000ACC00100793512AB00201E4950
:10015000086006C881F3088810474FF050400068D7
:1001600008B10020F3E70DA40ECC002902D000F066
:1001700012F8F9E71549164A002000E001C1914242
:10018000FCD114498847144988471449884700BE60
:10019000FDE701C901C29A42FBD37047D49C01100C
:1001A0001001002020260020E4C1011000000820DA
:1001B00000000820E4C1011000E0072000E0072053
:1001C000000000007047000008ED00E0202600203D
:1001D0002C750020AD8B001045020010A58B00107F
:1001E00070B5084696B00C46154600F00BFE42234B
:1001F00001462A460093204605AB00F023FC064644
:1002000001F0DCFD02462EB92946204601F0F8FE39
:1002100016B070BD019605A9094E009131880023E2
:1002200001F1010C0390A6F800C0022003F038FC95
:1002300029462046039A01F0E3FE16B070BD00BFC8
:10024000187500202DE9F04FBF4DC04CBBB008F031
:10025000ADFD02F0C5F803F011FC0FCD0FC495E819
:100260000F00BB4E84E80F00BA48E66000F014FCB3
:1002700001F070FD02460B46B74800F06BFCA4F19C
:100280001005B44B0EAC20462B6001F0A9FE0028EF
:1002900008BF002401F05EFD06460F4601F08EFD0A
:1002A0004FF0000B23462A46CDE90067A94902908A
:1002B000DFF8A482A948DFF8A49200F0ADFD0DF1AB
:1002C000440A01F0B5FD25AECDF81CB0CDF820B044
:1002D00001F040FD082405460F4601F0AFFD04E0A3
:1002E000122B00F0D780013C46D0304603F00AFCC8
:1002F000002841D03B462A46404600F033FC9DF89A
:100300009430102BECD130460DAB0DF12D020BA922
:1003100000F05EFB8346002800F0CB8001F04EFD2C
:100320008C4B2A4604930D9B009003939DF82D302F
:10033000484602939DF82C3001933B4600F030FF75
:100340009DF82C1002465346BDF8960000F060FB65
:10035000834AB2F800B00BF10103138001F02EFDC7
:10036000042302460193594600231120CDF800A032
:1003700003F096FB013CB8D1089B9D42079B77EBAD
:1003800003037BD32A463B464046724900F0F2FB0A
:10039000E0B198F80940002C00F0A7800B2000F095
:1003A00031FD422301466F4A00930B20334600F093
:1003B00049FB834601F002FD0446BBF1000F40F00B
:1003C000AB8022460B20674901F01AFE01F0F6FCD3
:1003D000002154220446304616F012FF304601F048
:1003E00013FE99F800308DF8943099F801308DF8AB
:1003F000983001F0B9FD99F819118DF8970000298E
:1004000070D199F818315A0099F8033098F809001A
:100410001B0143EA800313430B434FF47A728DF8B8
:10042000953028460023394616F0EEFE21463190DD
:10043000484600F03DFD21463290304601F0DEFD99
:100440005146304600F0D8F95023CDE900A3464884
:10045000002301884A1C02802246012003F020FB71
:10046000299B2A46019348463B46009400F028FD0C
:1004700015F57A73089347F10003079301F06AFCBE
:1004800001F0DEFC01F066FC01F0BCFD0A2004F086
:1004900063FA1DE730460DF12E020CA900F0C0FAF8
:1004A00000283FF420AFBDF82E100C9801F066FC38
:1004B00019E75346BDF896000222FF2100F0A8FA82
:1004C000274A11884B1C0991138001F077FC042303
:1004D0000246019311205B460999CDF800A003F074
:1004E000DFFA00E7012100228EE70A2000F08AFCF3
:1004F000422301461D4A00930A20334600F0A2FA27
:10050000079001F05BFC079B83468BB95A460A2093
:10051000164901F075FD59E7CDE9006B1448002339
:1005200001884A1C02802246022003F0B9FA48E7FB
:10053000019323460E4C009621880246481C2080D9
:10054000022003F0ADFAE1E7CC750110AC600020A9
:10055000E1010010E8510020C8280020F028002008
:1005600016750020807201101A7500208C7201101F
:10057000187500204FF6FF73A1B341F2210C4A1EFB
:10058000411E104411F8012F83EA02235A001B0474
:1005900048BF82EA0C025300120448BF83EA0C03EE
:1005A0005A001B0448BF82EA0C025300120448BFE1
:1005B00083EA0C035A001B0448BF82EA0C02530072
:1005C000120448BF83EA0C035A001B0448BF82EAA6
:1005D0000C0253009BB2120444BF83EA0C039BB28B
:1005E0008842CFD118467047F0B51E468BB31346EC
:1005F0004FF0010E79B300F1FF3C0025704601EB8E
:100600000C0709E0964203F805E022D305464FF0B7
:10061000010E1046BC450FD01CF8011F421C0029DA
:10062000F0D086420EF1010E13D9BEF1FF0F19541E
:1006300006D0BC451046EFD12B4483F800E0F0BD56
:100640000230864203F805E003D315464FF0010E51
:10065000E0E70020F0BD7046EFE700BF2DE9F04372
:100660000D4621B34FF0000C0646914619466046F0
:1006700002F1FF3816F80C40CCB104EB0C07AF4286
:1006800015D8012C18D000F1FF3E0EEB0402B44443
:1006900008EB000E07E0814200F1010007D990420B
:1006A0000EF8013F06D01CF8013F002BF3D10020CB
:1006B000BDE8F083FF2C09D0AF42F9D28842F6D2D0
:1006C0000023BC4609F800300130D3E7AF42EFD237
:1006D000BC46CFE72DE9F041BDF81C401E46B4F5FD
:1006E000807F089B43D8099F04F11005BD423ED886
:1006F000B0464FF0000C6FF038064FF0000E1D278B
:1007000066F3070E664661F3070C090A61F30F2CC6
:10071000012167F30F2E61F3174E110C61F30706E9
:10072000110E62F3174C61F30F26120A62F31F6C6D
:1007300068F317464FEA182262F31F6660F31F6ED4
:10074000220A1C73C3F800E0C3F804C09E605A7309
:100750008CB90E34214618461E190893FFF70AFF7C
:10076000089B1855000A70702846BDE8F0810025E6
:100770002846BDE8F08103F10E002246069916F0E6
:100780000FFD089BE5E700BF0F2904D990F800C0D2
:10079000BCF1C70F01D00020704790F801C0BCF138
:1007A0001D0FF8D170B5847882B0012C264604D193
:1007B000848904F1100C8C4502D0002002B070BD79
:1007C0000119CD8904F10E0101920090FFF7D2FECC
:1007D000A842F2D1009B019AD9780E33117033F8F8
:1007E0000A1C3046518053F8081C516033F8041C31
:1007F000D36011811482E1E703780B7043784B706A
:1008000083788B70C378CB7003790B7143794B710C
:10081000B0F906301A0ACA718B71B0F908301A0A99
:100820004A720B72B0F90A301A0ACA728B72838943
:100830001A0A4A730B7303694FEA132C1A0C8B7351
:100840001B0E81F80FC00A744B74B0F914301A0AE9
:10085000CA748B74B0F916301A0A4A750B75B0F960
:1008600018301A0ACA758B75B0F91A301A0A4A7606
:100870000B76B0F91C301A0ACA768B76B0F91E30A6
:100880001A0A4A770B77038C1A0ACA778B77438C3C
:100890001A0A81F8212081F82030838C1A0A81F805
:1008A000232081F82230C38C1A0A81F8252081F890
:1008B0002430B0F928301A0A81F8272081F8263030
:1008C000B0F92A301A0A81F8283081F82920B0F9C5
:1008D0002C301A0A81F82B2081F82A30B0F92E30FA
:1008E0001A0A81F82D2081F82C30036B81F82E3004
:1008F0004FEA132C1A0C1B0E81F82FC081F8302000
:1009000081F83130436B81F832304FEA132C1A0CE6
:100910001B0E81F833C081F8342081F83530038F05
:100920001A0A81F8372081F83630B0F93A301A0ABD
:1009300081F8392081F83830838F1A0A81F83B20FA
:1009400081F83A30036C1A0C81F83C304FEA132CD2
:100950001B0E81F83E2081F83DC081F83F30B0F990
:1009600044301A0A81F8403081F84120B0F946300D
:100970001A0A81F8432081F84230B0F948301A0A47
:1009800081F8452081F84430B0F94A301A0A81F8DC
:10099000472081F84630B0F94C301A0A81F84920D6
:1009A00081F84830B0F94E301A0A81F84B2081F8AE
:1009B0004A30B0F850301A0A81F84D2081F84C3096
:1009C000B0F952301A0A81F84E3081F84F20704742
:1009D00090F800C0BCF1100F17D1B0F810C0BCF1F6
:1009E000050F12D910B4C46894F800C081F800C093
:1009F0000121C46894F801C082F800C0C26810BC2C
:100A0000D2F8022008461A60704700210846704755
:100A10004FEA102C187083F801C09970DA70704793
:100A20000378122B0BD1038A052B08D9C368012048
:100A3000D3F800C0C1F800C09B8813807047002025
:100A4000704700BFF0B583B0AAB1054610461C46FA
:100A50000E46019216F02AFB4028024628BF40228B
:100A60000899931C8B4209D801992570667040B98A
:100A7000022003B0F0BD089C012C0AD8002003B06E
:100A8000F0BDA01C019316F08BFBBDF8040003B071
:100A9000F0BD18705970EBE700B500234FF4967164
:100AA0003C2241F2883E41F27C5CC0E9003E016498
:100AB000416182604FF416710362C362026378235E
:100AC0004FF4FA724FF0320EC0F80CC0C1614FF40F
:100AD000E15C4FF4FA6102618363B4221423C0F82D
:100AE00034E0C0F818C04162C263836200BD00BF39
:100AF000431E0F2B9DBF034B00EB400053F820001B
:100B000000207047F47401104B1E0F2B13D80C4BB0
:100B100001EB410C03EB8C0CDCF808305BB100B549
:100B20008646DCF80400904207DC934205DB012096
:100B30004EF8212000BD00207047002000BD00BFFE
:100B4000F47401104B1E0F2B94BF50F821000020AD
:100B5000704700BF11461A460023C0E90012C0E9E1
:100B60000233704711461A460123C0E9001203728E
:100B7000704700BF30B594460446427A007A83B08D
:100B800018B96072104603B030BD08462168019262
:100B9000BCEB0105616863EB01030C210093FFF7D7
:100BA000D1FF4FF47A7180FB0101009BA84299416B
:100BB0002CBF01200020019A60724240104603B011
:100BC00030BD00BF70B50E46144600214FF484724C
:100BD0001D4616F015FB2946034620461E60C3E954
:100BE0003E0170BDC0E906230174704711461A46E4
:100BF0000123C0E93E12A0F8003170472DE9F04111
:100C0000044615461E46036882B0984690F8F130B7
:100C100000EB8301089803F10E02C862013344F827
:100C2000325004EBC202566003F00F0384F8F13037
:100C300094F8F0300F2B9CBF013384F8F03094F817
:100C40000131002B55D0237CFBB194F8283013B12F
:100C500002B0BDE8F081A269E369AA1A4FF006016B
:100C6000404666EB03070192FFF76CFF4FF47A737F
:100C700080FB0303019A824277EB030352D30123E3
:100C800084F8283002B0BDE8F0816368089A934286
:100C900026D2626001214046FFF754FF089B1844AA
:100CA000636898421ED8D4E9022152EA01030F4634
:100CB00000F09B80AA1A66EB0107404602210192D0
:100CC000FFF740FF4FF47A7380FB0303019A8242DF
:100CD00077EB0302BCD30123C4E906562374B7E7BC
:100CE000002BD7D100220023C4E9022302B0BDE8C3
:100CF000F081D4F8F820D4F8FC30AA1A4FF007019C
:100D0000404666EB03070192FFF71CFF4FF47A732E
:100D100080FB0303019A9042BB413CBF012384F84E
:100D2000013190E703214046FFF70CFF089B9842F2
:100D300006D800220023C4E9082302B0BDE8F081F0
:100D400094F8F0300F2B53D994F8F1C00CF10F0147
:100D500001F00F0101F10E030CF10E0054F83320E5
:100D600054F8307004EBC30304EBC00040685B68C8
:100D7000D21B63EB000352EA030039D004EB81017C
:100D800004EB8C0CC86ADCF82C10401A6CEB0C0CD1
:100D9000BCF1000F02DA40426CEB4C0C1849A0FB8E
:100DA000010E01FB0CE116F003FA04210746404650
:100DB000FFF7C8FEB842BCDDD4E9082152EA0103BE
:100DC0000F461AD0AA1A66EB010705214046019288
:100DD000FFF7B8FE4FF47A7380FB0303019A824257
:100DE00077EB0302BFF44BAF32E7C4E9025664E786
:100DF00004214046FFF7A6FE9BE7C4E90856E4E756
:100E0000A08601000238C0B208289ABF014B185CC6
:100E100000207047C0750110F0B504460E46174615
:100E200085B04FF4947200211D4616F0E9F9DDE912
:100E30000A233146C4E9486704F11800FFF7C2FEEF
:100E400000232370DDE90A23C4E902230DB12B78C6
:100E50000BB905B0F0BD6B68297A04F11800236165
:100E6000DDE90A23FFF7BEFE2B780821DDE90A56EB
:100E7000D81E022898BF0223D4F824012370C4E9A5
:100E80000256C369094A00689847227894F82810E6
:100E9000D4F8243125698DF80420D3E900028DF8B7
:100EA0000C10029501A9904705B0F0BD9872011091
:100EB000006920B1884201D8081A704700207047A5
:100EC0002DE9F043044689B011991830009194F847
:100ED00019719046994694F8286094F84050FFF7AD
:100EE0008DFE27B994F81931002B40F0A08026B967
:100EF00094F82830002B40F092804DB994F840309F
:100F000033B1D4F824310421DD6918689D4AA8471B
:100F10002378082B35D8DFE803F00534B7373737A7
:100F200034349200D4F824319A6918689047D4F880
:100F300024211368002840F0DF8018460221D3697D
:100F4000914A984709252269D4F82431039294F8EC
:100F5000282025708DF808508DF81020C4E90289EA
:100F6000D3E9000202A990472B461821874A02A81C
:100F700007F0E4FDD4F824310121DC69186802AAE5
:100F8000A04709B0BDE8F08394F81911002900F0DA
:100F90009C80A268E568B8EB020669EB0505032BA7
:100FA000D4F8200100F0D880042B0CBF0F211021B1
:100FB000FFF7C8FD4FF47A7380FB0303864275EB9D
:100FC0000303DED32178D4F824210329D36800F069
:100FD000B380042900F0C2800121A170002B00F031
:100FE000C98003261068984735460021D4F824218B
:100FF0006170136910689847216994F82830D4F813
:10100000242125708DF8085003918DF81030C4E923
:101010000289D2E9000302A998473346A5E7D4F82C
:1010200024310321DE691868594AB04765E7D4F8CE
:1010300024310921DF691868564AB84757E7002567
:10104000D4F8243165701A69186829469047D4F895
:101050002421A570D36823B1106829469847D4F895
:101060002421092523692570039394F828308DF8ED
:1010700008508DF81030C4F80880C4F80C9002A90C
:10108000D2E9000398476FE7E378002B7FF479AF4C
:1010900094F81931002B3FF474AFD4F824310D21AA
:1010A000DD6918683C4AA8470121D4F82431A170B1
:1010B000DA681AB118689047D4F8243100216170B9
:1010C0001A691868904703253DE7D4F82431A170C8
:1010D000DA681AB118689047D4F824310021617099
:1010E0001A6918689047D4F824310E21DD692B4A1B
:1010F0001868A847022526E701252169184694F8B3
:10110000283025708DF80850C4F80880C4F80C9079
:1011100003918DF8103002A9536898472B46182187
:101120001A4A02A807F00AFDD4F824312946DC69DE
:10113000186802AAA04724E70021A1700BB110682B
:1011400098470A21D4F82001FFF7FCFC0426D4F8C4
:1011500024213546C1B24BE70E2129E70025A570B1
:1011600063B105262946106898472946D4F82421FA
:1011700035463DE703261946354639E70526194623
:10118000354635E7B4720110C8720110BC72011007
:10119000AC720110A0720110D4720110E072011043
:1011A0002DE9F041044686B01830984617469DF860
:1011B00034509DF83860FFF719FD2378033B022B6C
:1011C0002AD90A2D60D8DFE815F0230061005F00FE
:1011D0005F008B005F00B900230023000B00D100EB
:1011E000642E51D82378083B012B40F2E980D4F8D3
:1011F0002431667018681A6931469047D4F8243152
:10120000DC691868002E00F0CC80954A0C21A047BC
:10121000002006B0BDE8F0810021D4F82431DA685E
:10122000A1701AB118689047D4F824310021617078
:101230001A6918689047D4F824010E21C369894AB5
:1012400000689847394642460223C4E902122169E0
:10125000D4F82401019194F8281023708DF80030FF
:101260008DF80810D0E90002694690470223182142
:1012700068467D4A07F062FCD4F824010121C36965
:101280006A46006898479CE70220C2E7002322696B
:10129000E3700AB90C9A22612378022BB8D0384641
:1012A00041460225C4E90201D4F8243194F82810FB
:1012B00025708DF8005001928DF80810D3E90002D6
:1012C000694690472B4618216846674A07F036FC66
:1012D000D4F8243101216A46DC691868A04797E7F1
:1012E000D4F824310721DD691868604AA847012530
:1012F0002378E570092B8BD03A4643460826C4E98B
:1013000002232269D4F82431019294F8282026700F
:101310008DF8006069468DF80820D3E900029047F7
:10132000334618216846504A07F008FCD4F82431A7
:101330006A462946DC691868A04769E731460F9A72
:101340001098FFF7E1FB00289ED00D2E7FF460AFD0
:10135000A378002B3FF45CAFD4F82421D368002B92
:101360003FF456AF01211068984751E7022E8BD801
:10137000D4F824512B462868AEB12278083A012AC5
:1013800040D9022E18685ED0A27822B99A6812B1AC
:101390009047D4F824310C21DC69354A1868A047FD
:1013A00036E7344A32E7EB68A6701BB131469847FE
:1013B000D4F824510C21EB692F4A2868984727E775
:1013C000394642460225D4F824311868C4E902128D
:1013D00022692570019294F828208DF80050694602
:1013E0008DF808205B6898472B46182168461E4AEE
:1013F00007F0A4FBD4F8243101216A46DD6918689E
:10140000A847F4E6394642460225C4E90212226999
:101410002570019294F828208DF8005069465B6889
:101420008DF8082098472B4618210F4A684607F088
:1014300085FBD4F824310121DD6918686A46A84784
:10144000D4F824319DE70121DA68A17012B19047E8
:10145000D4F824310C21DC69084A1868A047D7E683
:10146000EC720110E0720110BC72011008730110DF
:1014700034730110F87201101473011024730110F9
:101480000023FF22C0E90033C0E90233C0E904337E
:1014900082717047FF292DD083798B4228D010B5F7
:1014A0001446427903793AB302EB030E5FFA8EFEDB
:1014B00001E0734509D003F0010C10F81CC00133A2
:1014C0008C45DBB2F5D1012010BD012A0BD10223DE
:1014D0000EF0010E00F81E1000EB4E0E8EF80140CB
:1014E00043710120F0E7038A01330382002010BD1D
:1014F00001207047002070479E460123E8E700BFA7
:101500008379FF2B01D0012070474079003818BF44
:1015100001207047F8B581790446FF2916461D461B
:101520000BD0D0E90223964275EB030326D3DDE905
:10153000073000229847FF23A3716379F3B1207924
:10154000013B04EB40025178421C14F8100002F0F9
:101550000102FF2907462271637103D0DDE90730DC
:1015600000229847079B0122394608989847069B16
:10157000A7719E1945F10005C4E90265F8BD00BFD9
:10158000F0B5FF2983B040D0164682790D468A42D5
:10159000044633D00027617951B323795E18F6B23F
:1015A000002109E001335278DBB29E420EF804CCF0
:1015B0000EF8032CC1B212D003F0010214F812C0CD
:1015C00002A8654500EB410E04EB420201F1010067
:1015D000E8D10133DBB29E424FF00107ECD139B1C3
:1015E000BDF80430012923801CBFBDF8063063809C
:1015F000002338466171237103B0F0BD1846002204
:10160000B047FF230127A371C5E70027384603B081
:10161000F0BD00BF10B510210024124B124AE0FBB0
:101620000134180E40EA042023F07F410144A2FB5C
:101630000102881A02EB5002D20AC2EB0232891A66
:10164000DFF828C05B1A0CFB03F0DFF824E064F13C
:101650000004A3FB0E320EFB04001B0C104443EAF3
:10166000004010BDFFFFFE0F01011000EFFFFEEF75
:10167000FFEFFFFE012938BF01212DE9F0410C46A3
:10168000174698464FF4805203460021E4FB02318E
:10169000090141EA13711B010646581E4FEA044234
:1016A0004FEA144361F1000115F0AEFDB0F5805F23
:1016B00071F1000332BF054640F6FF750021102D81
:1016C00071F1000138BF10254FF0100CA4FB052369
:1016D000500840EAC3705908E6FB0C01904271EBD8
:1016E00003040BD315F090FDB0F1011F71F100015F
:1016F0000AD23D60C8F80000BDE8F08101203D60DD
:10170000C8F80000BDE8F0814FF480303D60C8F8B3
:101710000000BDE8F08100BF00239FED057BC0E91C
:10172000013380ED047B0380704700BFAFF300807E
:10173000000000000000000010B5DDE9023E19B312
:10174000184CB4FBF1F1022938BF022101FB02F26F
:10175000632A01F1FF3C1ED9134CA4FB0242BCEBEF
:10176000521F4FEA521419D2624664464FF0010CE0
:1017700040F201119B184EF10002C0E904324460AE
:10178000C0F808C0018010BD0649DFF820C001FB89
:1017900002F2632AE0D801221446E9E72246A1EBCF
:1017A000040CE5E740420F001F85EB513F420F005C
:1017B00000230380704700BF037803B143781846C5
:1017C000704700BF01460078D8B110B50C69A2423D
:1017D0004C6973EB040C12D3D1E9014C91F801E090
:1017E0008EF0010EBEF1000F18BFA4461CEB0202E2
:1017F00043F10003C1E9042381F801E010BD00209A
:1018000010BD70470000000000239FED097B0370AE
:1018100080ED027B80ED067B80ED0A7B43600361F7
:1018200080F8203080F83030704700BFAFF3008080
:1018300000000000000000002DE9F0470378DDE91A
:101840000856002B4AD10123C0E90115C0E9036104
:10185000C0E906560370002A5DD090F82030002BB6
:101860003FD08368C4689946EB1AA24666EB04042D
:10187000642B74F1000480F820202DD390460F468D
:101880000446002B37D04EF6602061689A02791A20
:101890009B0D81FB000115F08BFC47F6FF734FF6A3
:1018A000FF721B1841F10001934271F1000110D247
:1018B000B8F1000F0DD0A36AE26A13F5FA7342F192
:1018C000000299457AEB020303D3633080B2C62845
:1018D0001DD9C4E90175E660BDE8F087002AC0D0D3
:1018E000BBE70123C0E90A56C0E90115C66080F8CC
:1018F0002030BDE8F087002AEBD0836AC26A13F576
:10190000FA7342F1000299457AEB0203E1D3012315
:1019100084F83030DDE780F82020DDE7F8B50446B4
:1019200000780E4615461F46E0B1A069101A15D082
:101930004EF6602C2169830D711A820281FB0C0125
:1019400015F036FCB0F5004F71F1000313DA4FF0DB
:10195000FF320B4B9842914110DB00B2C4E90657AD
:101960002661F8BDE3600123C4E90112C4E906570A
:1019700023702661F8BD47F6FF70EFE71846EDE7E4
:101980000180FFFF0346002290F8300083F83020EA
:10199000704700BF012070474FF0010C07C910B419
:1019A000034B044C83E8070084F800C010BC704768
:1019B000B4730020277500200148FFF7A1BD00BFC8
:1019C000D82800200C4A127882B908B578B10D21C8
:1019D000FFF7B8F80346DFF828C012228CF8003071
:1019E0001121BDE808400548FFF754BD70470D20A0
:1019F000FFF77EF80346EEE724750020D828002084
:101A0000AC220020112902D042EC4010704730B5C2
:101A10000C4685B0BAB92D4B1B780BB105B030BD63
:101A20002B4A2C481268052102F001020260204670
:101A3000019302F0A1F84FF0010242EC4440019BF7
:101A400043EC4040EAE7052003F010FA03AB02AA9A
:101A500044F62061FFF70EFE029B20461C4CC3F3A8
:101A60000B036360039BDFF878E003F1FF3C1FFA90
:101A70008CFCC4F810C09EF800C0174AACFB033EB3
:101A80004FEA135C4CEA0E3CC3F3130EF444A2FB82
:101A90000CE2D20802EB820202EB8202ACEB020201
:101AA0009B1A0E4AE568A3FB023E9B0885EA0343A6
:101AB000084D6FF30F03EB60042102F05DF823681B
:101AC000DB4303F001032B6005B030BD247500201B
:101AD00000800A4000900A401F85EB51295C8FC2AC
:101AE000AC22002030B50D4685B0002900F086807C
:101AF00000287ED00921FFF725F80446052003F0D1
:101B0000B5F9FFF787FD4FF47A7303FB00F0A042AD
:101B100041D84948FFF74CFE052003F0A7F9474B91
:101B200004F5FA71A3FB013102AA03AB8909FFF79F
:101B3000A1FD029B424CC3F30B03A366039B414AE6
:101B4000A3FB053C039DDFF804E1013DADB26567F1
:101B50001D0D45EA0C3CC3F313056544A2FB05C209
:101B6000D20802EB820202EB8202AA1A9B1AA3FBA2
:101B70000E3E226FC3F38F03334D53409BB22B674E
:101B800004211A2001F0F8FF636EDB4303F0010328
:101B90006B6605B030BD2A4B2B4A5B6E264803F0BE
:101BA00001035366FFF704FE05211A2001F0E4FF4C
:101BB0001A234FF0010242EC44304FF0000242EC95
:101BC000403003F011F879BB1C4BA3FB00308309B4
:101BD0004FF0000C2A46CDE9003C21461648FFF79D
:101BE000ABFD1548FFF7E8FD1A2340EC403005B087
:101BF00030BD0920FEF77CFF04467FE7104B124AF8
:101C00005B6E0D4803F001035366FFF7D1FD05211C
:101C10001A2001F0B1FF1A234FF0010242EC4430C8
:101C200045EC403005B030BD00234FF47A7215F01A
:101C3000EBFA0346CCE700BF70280020D34D6210BA
:101C400000800A401F85EB5100900A40295C8FC23A
:101C500002F0CABFF0B583B000294FD0002849D0A8
:101C60000D21FEF76FFF334F12234FF00002387043
:101C700042EC40300122304B05201A7003F0F6F898
:101C80006A4601AB44F62061FFF7F4FC009B2B4C45
:101C9000C3F30B036360019B294A5E1EB6B2266143
:101CA0003E78DFF8ACE0A6FB03361F0D47EA0637A7
:101CB000C3F313063E44A2FB0672D20802EB820273
:101CC00002EB8202B21A9B1AA3FB0E3ED4F80CC0A0
:101CD0009B081C4D8CEA03436FF30F03EB60042158
:101CE000112001F049FF2368DB4303F001032B605F
:101CF00003B0F0BD0D20FEF7FBFEB4E70C460E4826
:101D00000B4604701121104A1048FFF739FC0B4BA9
:101D10000C4A1B68052103F001031360112001F038
:101D20002BFF11234FF0010242EC443044EC4030D1
:101D300003B0F0BDAC2200202475002000800A40D2
:101D40001F85EB5100900A40051A0010D82800208A
:101D5000295C8FC208B502F047FF31B14FF47A72A7
:101D6000002315F051FA002108BD034B0021A3FB0D
:101D70000030800908BD00BFD34D621008B50C4B80
:101D8000186002F031FF49B14FF47A72002315F068
:101D90003BFA0022074BC3E9000208BD0022064BB4
:101DA000A3FB0030034B8009C3E9000208BD00BF5C
:101DB000FC740020182A0020D34D621010B5194C75
:101DC0002368DBB102F010FF91B9174BA3FB003081
:101DD0008009164AD2E90031C01A4FF47A724FF0E6
:101DE000000361EB410115F00FFA2368184410BDA0
:101DF0004FF47A72002315F007FAEAE702F0F4FED6
:101E000051B9094BA3FB003080094FF47A720023CB
:101E1000002115F0F9F910BD4FF47A72002315F086
:101E2000F3F9F2E7FC740020D34D6210182A002069
:101E300001214FF4FA6003F071B800BF03F064B8F9
:101E400030B5002204460D4641F288333B4985B047
:101E50000292009322462B4639480191FFF75AFB24
:101E6000384B1A78002A48D03749384B0868D3F8DD
:101E700000C0C3684FEACC010431CB4013F00F031C
:101E800059D000EB8C00B3F1010C016A28D0BCF1F1
:101E9000010F016A24D0032B016A21D0042B016AAF
:101EA0001ED0052B016A1BD0062B016A18D0072B08
:101EB000016A15D0082B016A12D0092B016A0FD0D4
:101EC0000A2B016A0CD00B2B016A09D00C2B016A7A
:101ED00006D00D2B016A03D00E2B016A18BF016AD0
:101EE0001B4B1960164B1B489B79112B1CBF1A4BBF
:101EF0001A78CDE90045FFF79FFC22462B4617488C
:101F0000FFF760FC80B94FF05043154A5B681178C9
:101F100083F08043C3F38073994203D001201149B9
:101F20001370087005B030BD0C48FFF745FC1A234C
:101F300040EC4030E7E7064B1968D3E7051A00107C
:101F4000D82800201F750020B4530020B85300206B
:101F5000B05300208828002024750020702800201D
:101F60002975002028750020184B1B78FBB9184BE9
:101F70009B79A3F11103B3FA83F35B091B014FF0C3
:101F8000504C1449DCF804C043F020020878D2B267
:101F90001CF0804F08BF134620B1002243F04003DD
:101FA000DBB20A700C4A12781AB91846704710232F
:101FB000E5E700B5094883B00193FFF7E3FC019B17
:101FC00043EAC013DBB2184603B000BD24750020FD
:101FD000D8280020287500201F75002088280020A0
:101FE000044B84461B781BB1034A07CA8CE80700E0
:101FF0001846704727750020B4730020704700BF53
:10200000704700BF00F052BF2DE9F04700210546A0
:10201000202308240426A74A88B0A9706B7113688E
:10202000A54F83F4C04303F47043A448C5F80610D9
:102030003B6006601368DB05FCD55368013C11FA70
:1020400083F1F6D19E4BC9081B782987002B4BD012
:102050009C4B9D4A18681268C100D3680431CB407C
:1020600013F00F0300F0AF8102EB8002581E166AD6
:1020700027D00128166A24D0032B166A21D0042BFE
:10208000166A1ED0052B166A1BD0062B166A18D0AE
:10209000072B166A15D0082B166A12D0092B166A60
:1020A0000FD00A2B166A0CD00B2B166A09D00C2BFA
:1020B000166A06D00D2B166A03D00E2B166A18BFAF
:1020C000166A824B1E6002F08FFD002900F06481C9
:1020D0004FF47A72002315F097F802460023314638
:1020E0007B48FFF71BFC00E07A48A5F8520007ABDD
:1020F000794805AA0DF1120100F098FC002800F0C3
:10210000B480BDF81220079B6A81BDF814202B61B2
:10211000AA81724A1360724807AB05AA0DF1120139
:1021200000F084FC002800F01681BDF81210BDF804
:102130001420079B6987AA872B6402F055FD0029AC
:1021400000F089804FF47A72002315F05DF80246A2
:1021500005F1140705F11A060023CDE90076614860
:1021600000F0FAFF002800F0EC8002F03DFD0029AD
:102170006CD04FF47A72002315F046F8024605F150
:10218000440705F14A060023CDE90076564800F0E1
:10219000E3FF002800F0C9800DF1110304AA0DF13E
:1021A0000F010DF1160000F0A9FE002847D0BDF880
:1021B00016209DF81030A5F850201BB1AB7843F0E5
:1021C0000203AB709DF811301BB1AB7843F00403F0
:1021D000AB709DF80F30002B42D000264FF6FF7AEF
:1021E000B14605F120075FFA86F8404606A901F0DE
:1021F0008DFBB0B140460DF11A0101F0E5FB80B155
:10220000BDF8183001343B80BDF91A303B810136EE
:10221000042E07F10207E6D1002C6BD008B0BDE810
:10222000F0874046A7F800A0A7F8089001F062FBED
:102230000028ECD06B7943F040036B71E7E7AB7893
:10224000A5F8500043F00103AB70C6E7274BA3FB92
:102250000032920993E7254BA3FB0032920977E7FE
:10226000AB7843F00803AB70B7E71C4B68811B6881
:10227000A8812B616B7943F003036B7102F0B4FC0E
:10228000002940F09A80194BA3FB003080090022FE
:10229000174BD3E90061B04272EB0101FFF43BAF91
:1022A00041F288314018186052410B485A6000F0E2
:1022B000E1FA30E700000A4000100A4000200A401E
:1022C0001F750020B8530020B4530020B0530020E5
:1022D000882800200080FFFFDC220020A8220020A8
:1022E000B02200202023002008230020D34D6210BC
:1022F000A022002002F078FC002958D1334BA3FB28
:10230000003080090022324BD3E90041A04272EB39
:10231000010183D341F2883140185241C3E90002E0
:1023200001F020FA08B0BDE8F0876B79686463F0CB
:102330007F03A5F84800C5F84A00A5F84E006B7168
:102340002AE76B79686143F010032883C5F81A0007
:10235000E8836B7109E76B79688743F00803A88706
:1023600028646B7102F040FCD9B9184BA3FB003014
:1023700080090022174BD3E90061B04272EB0101E2
:10238000FFF4DBAE41F28831401852411860124828
:102390005A6000F06FFAD0E60C4BA3FB00329209B2
:1023A0009CE64FF47A72002314F02EFFE1E74FF41D
:1023B0007A72002314F028FFA4E74FF47A72002306
:1023C00014F022FF63E7054B1E687CE6D34D6210D4
:1023D0009022002098220020B0220020B05300203C
:1023E0002DE9F04F97B008AB1C464FF001090027CC
:1023F0009F4A0DF12C0807CA83E8070054F8045BD4
:10240000284601F0F9FB4FF0010343EC44504FF034
:10241000000646EC40504445F0D19648FFF730F8AE
:102420009548FFF779F91E2001F0E6FB1E2046ECE7
:1024300044000022012101F0BDFB08F0D7FE1F215E
:102440002E2001F099FB00222E20114601F0B2FB54
:1024500000212E2001F0C0FB132001F0CDFB152040
:1024600001F0CAFB4FF0130846EC44804FF0150A08
:1024700046EC44A001220021404601F09BFB0122D2
:102480000021504601F096FB03237C4D7C4ECDE9A4
:1024900001392A4631467B48CDF8008007AB09F068
:1024A0003FFA002840F081807749784809F022F807
:1024B00003211C2001F060FB03211D2001F05CFBC7
:1024C000002201211C2001F075FB002201211D20AA
:1024D00001F070FB6E4800F0CDF901F043F90920DE
:1024E00001F08AFB4FF00104092344EC403044EC36
:1024F000443044EC40300C2001F07EFB0C2344ECD3
:10250000403044EC443044EC40300D2001F074FB8A
:102510000D2344EC403044EC443044EC40302F2058
:1025200001F06AFB2F2344EC403044EC443044EC8F
:1025300040305849584809F041F80121082001F07D
:102540001BFB01210A2001F017FB01210B2001F0E8
:1025500013FB524800F08EF900F026FC02F044FB19
:10256000C9B14FF47A72002314F04EFE02460023E4
:102570004B4800F0E5FD02F037FB89B14FF47A7269
:10258000002314F041FE02460023464800F0D8FD27
:1025900017B0BDE8F08F444BA3FB00308209E6E79B
:1025A000414BA3FB00308209EEE70097424601232E
:1025B0002968306809F0DAF8009752460123296843
:1025C000306809F0D3F84FF480324FF4F833CDE996
:1025D00010234FF44023A4461293079B139703F153
:1025E0000E02DB0143EA0233049323F0F8530DF1AA
:1025F000400B43F0A852D8465F460592BBE80F0057
:10260000ACE80F004FF0FF31A246A646049BCCF881
:1026100000100C93DCF800300493BAE80F00A8E82F
:102620000F00049BCBF800300FCFAEE80F004FF443
:1026300018230E931D4B059A0F934FF400230C9211
:102640000D93079A23462968306809F0D5F80028C9
:102650007FF42AAF32682B68106809FA03F303434A
:1026600013491448136081F80090FFF7CDF81BE779
:1026700014760110D828002070280020B8530020BC
:10268000B4530020EC750110A08601000024002046
:10269000DC22002040420F0000800840B0220020D1
:1026A0002023002008230020D34D6210FFFF10FEDE
:1026B0001F75002088280020F0B5047889B0012C0F
:1026C000054616461F468DF8171040D0447802F094
:1026D0008BFA4FF0FF326FF0004310F5FA5041F1E2
:1026E0000001824273EB010C3CBF104619460123E6
:1026F000CDE902010DF1170221462A48009308F0A6
:1027000025FF002820DB6D7802F06EFA4FF0FF32D3
:102710006FF0004310F5FA5041F10004824273EB70
:1027200004013CBF10461C462946002502903B464A
:102730003246039400951B4808F024FFA842B4BF1A
:102740000020012009B0F0BD002009B0F0BDCBB2DF
:10275000022163F07F038DF81F301348134B42684A
:10276000596003680A4083F00703114903F0CF035F
:102770000B60104B5A60AB784FF0000242EC4030D7
:1027800022460DF11F0114F053FD3B463246002155
:10279000054814F0F1FCAB7844EC4030204609B019
:1027A000F0BD00BF002400200080084000B00840B9
:1027B0000090084000A0084030B5037889B0012B94
:1027C00004468DF81C108DF81D2021D043784FF061
:1027D000FF341D4602F008FA6FF0004210F5FA507F
:1027E00041F10003844272EB03013CBF20461346D3
:1027F0000024CDE902032946022307AA00941848C1
:1028000008F0A4FEA042B4BF0020012009B030BDF2
:10281000144801F07F018DF81C104268124902F043
:10282000020C022205934A600168DFF844E081F05F
:10283000070101F0CF01CEF800100C49C1F804C027
:10284000A1784FF0000C4CEC401007A914F0F0FCFC
:10285000A278059B43EC4020184609B030BD00BF6C
:10286000002400200080084000B0084000A008407C
:102870000090084070B5D0220025037892B0012B5B
:1028800080F8255004468DF81F508DF8202000F068
:102890009C80457802F0A8F94FF0FF326FF00043BA
:1028A00010F5FA5041F1000C824273EB0C013CBF71
:1028B00010469C46012302902946574808AACDF8A5
:1028C0000CC0009308F042FE002822DB63784FF032
:1028D000FF351E4602F088F96FF0004210F5FA50FD
:1028E00041F10003854272EB03013CBF28461346C9
:1028F0000025029003933146012347480DF11F0242
:10290000009508F03FFEA84203DB9DF81F30602BC6
:1029100002D0002012B070BD1A23882120460AAAD6
:10292000FFF7CAFE0028F4D00723E121204608AAB9
:10293000FFF7C2FE0028ECD0BDF828209DF8243017
:102940009DF823009DF82510A280BDF82A20228141
:10295000BDF82C206281BDF82E20E2800C9AE26046
:102960000D9A22610E9A62610F9AA2619DF8412030
:102970002277BDF82020E2839DF8222062779DF81F
:10298000265003F00F021B0942EA001243EA01132A
:102990002284F22101222046638484F82450FFF728
:1029A0000BFF0028B5D02722F4212046FFF704FFB3
:1029B0000028AED04022F5212046FFF7FDFE00287A
:1029C000A7D0012384F82530A4E702208DF8282021
:1029D000124E134A716850603268014082F007025B
:1029E000104802F0CF0202600F4A5160A27845EC15
:1029F00040201A460AA93046059314F019FC059B9D
:102A00000DF11F022946304614F0B6FBA278059B53
:102A100043EC402079E700BF0024002000800840FC
:102A200000B008400090084000A008402DE9F04F99
:102A300090F8255087B025B90025284607B0BDE895
:102A4000F08F9A46914688460823F72104AA044647
:102A5000FFF732FE05460028EED09DF814C09DF821
:102A600013109DF815E04FEA0C1343EA013343EAD3
:102A70001E13B3F5002FDFD09DF811609DF81020D4
:102A80009DF81270300140EA023040EA171BBBF596
:102A9000002FD1D0501EC0B2FD2815D9B24213D19B
:102AA000BA4211D18A420FD162450DD172450BD184
:102AB0009DF81610914207D19DF81710914203D14D
:102AC000002384F82530B7E7A188B4F90AC0C1EB28
:102AD000131202FB02F24900C1EBD3011313B4F944
:102AE00008200CFB03F302FB01F19B1303EBE1262F
:102AF000BDF81610B4F90C2049BA89B2A6F5FA3C13
:102B0000009106EB860182FB0C2E803109120196A2
:102B1000A66202918CFB0C16B4F90E304FEA0E3E01
:102B20004EEA125E1203039203FB06F2D81701FB72
:102B30000020A3FB013202441B0A0398E78843EA02
:102B400002631B184EEB2222A3FB073E02F5004254
:102B500007FB02EE4FEAEE734FEA6E0253EA6E0E87
:102B600000F0E180B4F91470B4F912E007FB06F646
:102B70000397FF1701FB0766039F8EFB0CCEA7FB95
:102B80000171314400264FEA4E4E4EEADC3E4FEAD8
:102B90004C4C1CEB070C41EB0E01B4F910E0CBF5EB
:102BA000801001EBCE0E00F0004116EB0C0C41EA58
:102BB0005001C007B0EB0C0061EB0E0110EB000CF4
:102BC00041EB010E1CEB000C41EB0E064FEA861E9A
:102BD0004FEA8C174EEA9C6E1CEB070C46EB0E0E70
:102BE0004FEA8E0E4EEA9C7E4FEA8C0C1CEB000CDA
:102BF00041EB0E0E4FEA8E0E4EEA9C7E4FEA8C0C95
:102C00001CEB000041EB0E0114F0D2FAB4F91A30BB
:102C10004A1303FB02FE4FEA503C4CEAC14CDE175C
:102C20000CFB06EEA3FB0C3603FB02F2B6440CFBD6
:102C30000E22A3FB0C3C62445B0EB4F918C043EABD
:102C4000C2131B1841EB62620CFB01F14FEAEC7EF0
:102C50000EFB0011ACFB00C001444FEADC4C4CEA17
:102C6000413C13EB0C0342EBE141B4F916201B0A83
:102C7000D017000140EA127043EA01631201D21832
:102C800040EB2120002802DAFF3240F10000120A56
:102C900042EA0062019B617FA3F5963094F92430EB
:102CA00000FB01F100FB03F3C9129B1201F5004187
:102CB00003FB01F1B4F92030009EB4F922C01B05DA
:102CC000C3EB863300FB1C338912B4F91E0001F5F7
:102CD000001100FB01F103F5804301F50051891358
:102CE000DB1301FB03F3029E207FA8F80060CAF803
:102CF0000020DA1302FB02F2D21100FB02F2A3EB76
:102D00002213B3F1C85FA8BF4FF0C853642128460F
:102D100023EAE3731B1301FB03F39B0AA9F80030BA
:102D200007B0BDE8F08F0022B4E700BF84B08DE8A3
:102D30000F009FED1B7ADDED017AF4EEC77AF1EE1C
:102D400010FA0FDCF5EEC07AF1EE10FA9DF81D10C6
:102D500019DDB6EE007A77EE877AFCEEE77A17EEA9
:102D6000902A02E04FF47A72012101200D4B9DF868
:102D70001CC01A809A68D970024483F802C09A6015
:102D8000187104B0704709B10022EEE7F5EEC07A81
:102D9000F1EE10FAA8BF0121002281F00101E4E761
:102DA00000007A448C600020F0B500240C269FEDD2
:102DB000307B0321304D85B00095304B304D314A8A
:102DC000C3E9004414603048304A2E719C60304F93
:102DD000304B314E87ED007BC2E900448DF80F1077
:102DE00094600A2114731C600B220823286034604D
:102DF00000F0AEF8287900F0C3F8284B294600937C
:102E00002448274B274A08F003FF28B1214B3060A4
:102E10001C60002005B0F0BD1E4C206808F0F4FED8
:102E2000034628B91949206808F0DEFF034660B15F
:102E30001848336009F0E3FA0023164A1360134A76
:102E4000C2E9003393601373E3E7174920680DF17B
:102E50000F0208F049FF03460028E9D1206809F075
:102E60007FF803460028E3D10120D3E7AFF30080C9
:102E7000000000000000000040420F008C600020B5
:102E8000A05300208460002000800840E0740020EF
:102E9000C0280020C0530020886000200D310010A1
:102EA0005D300010A12F00104073011008B50F4BCA
:102EB000D3F800E0BEF1000F07D0DFF83CC0DCE93A
:102EC0000023904271EB030300D208BD10F16403AC
:102ED00041F10001CCE9003100227046044909F0BB
:102EE00042F90028F1D0034B186008BDC053002000
:102EF0002D2D001088600020C0280020DFF848C079
:102F000070B50646DCF80000D8B1DFF840C09CF888
:102F10000400B0B11D460B4BDCF80840D3F800E0CC
:102F20001C60BEEB040E18BF4FF0010EBCF8003061
:102F3000338081F800E09CF8023013709CF8033075
:102F40002B7070BD84600020C05300208C60002076
:102F500030B583B00D460699CDE9003208F02EFB5E
:102F600004460121284600F007FE0198012100F0E7
:102F700003FE0098012100F0FFFD204603B030BDA4
:102F800000B583B0019000F037FE4FF001030198C7
:102F900043EC400043EC440043EC400003B000BD70
:102FA0002DE9F04184B0ADF8061000283CD0002A8D
:102FB00038D090460268022711461D4651F8043F5A
:102FC00090F804C0044601F540500760106802F50F
:102FD000805E80F00F003B4001F5005100F0CF0013
:102FE000CEF8000000260B6046EC40C000BF00BFDA
:102FF00000BF012320680DF10E020DF10601ADF8AE
:103000000E6014F0ADF801281CD185B9002000BF76
:1030100000BF00BF4FF00102237942EC403004B002
:10302000BDE8F081002BC4D06FF00100F7E72B461C
:1030300042463146206814F0F3F88542E6D06FF03E
:103040000100E4E700BF00BF00BF4FF00102237999
:1030500042EC40304FF0FF30E1E700BF2DE9F04196
:1030600082B0ADF80610002839D0002A35D01D46B0
:10307000036802279C4690465CF8042F01790CF502
:103080004056376003F5805E1B683A4083F00F03BB
:103090000CF5005C03F0CF030446CEF800304FF08F
:1030A0000000CCF8002040EC401000BF00BF00BF83
:1030B000012220680DF1060114F09AF801281BD1B5
:1030C00085B9284600BF00BF00BF4FF00102237939
:1030D00042EC403002B0BDE8F081002BC7D04FF089
:1030E000FF30F7E72A464146206814F081F8281A95
:1030F00018BF4FF0FF30E5E700BF00BF00BF4FF043
:103100000102237942EC4030E9E700BF38B541F2D3
:103110008833984210D8044650B10A2C254628BF5F
:103120000A25FEF78BFE284601F016FC641BF4D13D
:10313000FEF784FE002038BD6FF0020038BD00BFEE
:10314000002112F5FA7243F10003C0E903318260F5
:1031500041700175704700BF2DE9F0411646427875
:1031600004461F468AB0042A00F2C482DFE812F047
:10317000CC008C0104013B010500082302788DF886
:103180002030904601F030FD42F210734FF0FF32D4
:10319000C0186FF0004341F10001824273EB010C53
:1031A0003CBF10461946012308ADCDE902012A466D
:1031B0004146B448009308F0C9F90028C0F20A82D9
:1031C00001F012FD42F210734FF0FF32C0186FF0A1
:1031D000004341F10001824273EB010C3CBF1046F9
:1031E00019460023CDE90201009341460623A54874
:1031F00006AA08F0C7F90028C0F2EC8114238DF864
:10320000173001F0F1FC42F210734FF0FF32C0189A
:103210006FF0004341F10001824273EB010C3CBFAF
:10322000104619460123CDE902010DF1170241466E
:103230009448009308F08AF90028C0F2CB8101F08D
:10324000D3FC42F210734FF0FF32C0186FF000430E
:1032500041F10001824273EB010C3CBF104619465C
:103260000023CDE902010093414606232A46854802
:1032700008F088F90028C0F2AD819DF821009DF882
:1032800019109DF820309DF8182043EA002342EAE7
:10329000012210991BB20A809DF8230013EB8302D0
:1032A0009DF8223048BF073243EA00231198D2101C
:1032B00002809DF81B109DF81A201BB242EA0122E1
:1032C00010999DF825004A8013EB83029DF8243065
:1032D00048BF073243EA00231198D21042809DF87C
:1032E0001D109DF81C201BB242EA0122109913EB1D
:1032F00083038A804FF00002119948BF0733DB1027
:103300008B800120226134E0D0E90223964277EBE2
:1033100003032DD342F23F030278ADF82030154667
:1033200001F062FC42F210734FF0FF32C0186FF0F0
:10333000004341F10001824273EB010C3CBF104697
:103340001946CDE90201294608AA002502234D4865
:10335000009508F0FBF840F2EE2301214FF0000049
:10336000F31847F10002C4E902322075617025614B
:1033700000200AB0BDE8F081D0E90223964277EB45
:103380000303F5D33E230278ADF82030904601F0D8
:103390002BFC42F210734FF0FF32C0186FF0004365
:1033A00041F10001824273EB010C3CBF104619460B
:1033B000002308ADCDE9020100932A4602234146CD
:1033C000304808F0C3F8002880F2268147F23053D5
:1033D00005210022F318617047F10001C4E90231B0
:1033E00022612275C4E70021D0E90223964277EBDF
:1033F00003038DF81810BBD33D2302788DF82030DD
:10340000154601F0F1FB42F210734FF0FF32C01885
:103410006FF0004341F10001824273EB010C3CBFAD
:10342000104619460123CDE9020108AA294615488C
:10343000009308F08BF80028C8DB01F0D5FB42F2BE
:1034400010734FF0FF32C0186FF0004341F10001DC
:10345000824273EB010C3CBF104619460023CDE9B4
:103460000201009329460123064806AA08F08AF8BB
:103470000028ABDB9DF81830052BA7D1042363701F
:1034800076E700BF00240020D0E90223964277EBC4
:103490000303FFF46DAF002302788DF818309046D7
:1034A00001F0A2FB42F210734FF0FF32C0186FF030
:1034B000004341F10001824273EB010C3CBF104616
:1034C00019460123CDE9020106AA4146A44800930A
:1034D00008F03CF80028FFF679AF01F085FB42F2D6
:1034E00010734FF0FF32C0186FF0004341F100013C
:1034F000824273EB010C3CBF10461946002308AD15
:10350000CDE902010093414604232A46944808F07D
:1035100039F80028FFF65AAF9DF82030A02B7FF431
:1035200055AF9DF82130FB2B7FF450AF9DF8233031
:103530000F2B7FF44BAF0123072223752378ADF8BF
:103540002020984601F050FB42F210734FF0FF32FA
:10355000C0186FF0004341F10001824273EB010C8F
:103560003CBF104619460023CDE9020100932A46CC
:10357000022341467A4807F0E9FF0028FFF626AF0C
:103580003D23ADF8203001F02FFB42F210734FF0D5
:10359000FF32C0186FF0004341F10001824273EB2B
:1035A000010C3CBF104619460023CDE902010093EF
:1035B0002A46414602236A4807F0C8FF0028FFF662
:1035C00005AF022316F1190147F10002C4E9021206
:1035D0006370CDE623690133022B23617FF6C8AE09
:1035E0002378984642F23F03ADF8203001F0FCFA10
:1035F00042F210734FF0FF32C0186FF0004341F1F8
:103600000001824273EB010C3CBF104619462A466A
:10361000CDE90201414698E63F23ADF8203001F0A4
:10362000E3FA42F210734FF0FF32C0186FF000431C
:1036300041F10001824273EB010C3CBF1046194678
:103640000023CDE9020100932A4602234146444863
:1036500007F07CFF0028FFF6B9AE40F23B13ADF84F
:10366000203001F0C1FA42F21073C01841F100039A
:103670004FF0FF316FF00042814272EB030C3CBF10
:1036800008461346CDE9020300232A46009341462B
:103690000223334807F05AFF0028FFF697AE40F2A6
:1036A0003D53ADF8203001F09FFA42F21073C0187C
:1036B00041F100034FF0FF316FF00042814272EBA5
:1036C000030C3CBF08461346CDE9020300232A46FB
:1036D000009341460223224807F038FF0028FFF6F6
:1036E00075AE032316F11E0147F10002C4E9021270
:1036F00063703DE6D0E90223964277EB0303FFF4C3
:1037000037AE42F23F030278ADF82030154601F0A3
:103710006BFA42F21073C01841F100034FF0FF3111
:103720006FF00042814272EB030C3CBF0846134627
:1037300029460025CDE9020308AA0223084800957E
:1037400007F004FF40F2EE2301214FF00000F218D1
:1037500047F10003C4E9022320756170256107E683
:10376000002400202DE9F0474FF000094FF0FE0A39
:103770004F465D4C5D4E86B004F1040816F8015BBF
:1037800004F8017B002D3ED08DF813A001F02CFA37
:103790004FF0FF326FF0004310F57A6041F1000105
:1037A000824273EB010C3CBF104619460123CDE960
:1037B00002010DF1130229464D48009307F0C6FEA1
:1037C000002820DB01F010FA4FF0FF326FF00043C9
:1037D00010F57A6041F10001824273EB010C3CBFAD
:1037E000104619460097CDE90201022329464048B8
:1037F00005AA07F0C7FE002805DB44F65413BDF800
:1038000014209A4205D04445B8D1484606B0BDE8D8
:10381000F087FF238DF8133001F0E6F94FF0FF3207
:103820006FF0004310F57A6041F10001824273EBC2
:10383000010C3CBF104619460123CDE902010DF1F0
:10384000130229462A48009307F080FE0028DADB9D
:1038500001F0CAF94FF0FF326FF0004310F57A60C3
:1038600041F10001824273EB010C3CBF1046194646
:103870000023CDE902010093294602231C4805AA32
:1038800007F080FE0028BEDB46F22203BDF81420BC
:103890009A42B8D14FF48A43ADF8143027238DF8FB
:1038A000163001F0A1F94FF0FF326FF0004310F530
:1038B0007A6041F10001824273EB010C3CBF10467B
:1038C00019460023CDE90201009329460323084845
:1038D00005AA07F03BFE002895DB012309F1010949
:1038E00004F8013C8FE700BFEC6000202076011057
:1038F00000240020032805D8034B185C003818BFAB
:1039000001207047002070472076011070B5032811
:1039100086B002D8294B1C5C1CB90024204606B096
:1039200070BD0223264A8DF81330125C0E461546F0
:1039300001F05AF94FF0FF326FF0004310F57A6052
:1039400041F10001824273EB010C3CBF1046194665
:103950000123029003911B4829460DF113020093A5
:1039600007F0F4FD0028D8DB01F03EF94FF0FF3CF2
:103970006FF0004210F57A6041F10003844572EB6C
:1039800003013CBF604613464FF0000C02900393C6
:10399000294602230B4805AACDF800C007F0F2FD26
:1039A0000028BADB2046BDF814305BBAC3F30E031F
:1039B00003EB83039B08338006B070BDEC600020EE
:1039C000207601100024002070B5032886B002D8AC
:1039D000274B1C5C1CB90024204606B070BD012397
:1039E000244A8DF81330125C0E46154601F0FCF89F
:1039F0004FF0FF3C6FF0004210F57A6041F1000398
:103A0000844572EB03013CBF1346604603930123D8
:103A10000290294618480DF11302009307F096FD15
:103A20000028D8DB01F0E0F84FF0FF3C6FF00042D7
:103A300010F57A6041F10003844572EB03013CBF4D
:103A4000604613464FF0000C029003932946022370
:103A5000094805AACDF800C007F094FD0028BADB9C
:103A60002046BDF814305BBA338006B070BD00BF8D
:103A7000EC600020207601100024002008B54FF4EF
:103A8000E131064801F0FCF80221002000F074F852
:103A9000BDE808400221012000F06EB80000074098
:103AA0004FF4887C10B5ADF50E7D909C0094BDF868
:103AB0004442019405ACCDE9024CFCF70BFE10B971
:103AC0000DF50E7D10BD01464FF48973204649AABD
:103AD000FCF78AFD0028F3D0002349AA13540130D3
:103AE000EED01146064A084493699B06FCD411F8AF
:103AF000013B81421360F7D10DF50E7D10BD00BF73
:103B0000000007402DE9F041174CA369DA0616D4EE
:103B10008046164E164FA36913F01003FBD125689B
:103B2000316815F0FF050DD0B1F5897F01F1010273
:103B30009ABF32607D543360A369DB06EBD5002069
:103B4000BDE8F0814FF4887338460A4AFCF786FDD9
:103B500035600028F0D0014642460648FCF714FEC6
:103B60000028E9D0BDE8F08100000740DC740020A7
:103B7000C8730020685200204FF4807C0C4B00B5C5
:103B800053F8202003EB8003C00082F0400200F1D4
:103B9000804003F5805E02F0C00200F5203003F59E
:103BA0004053CEF800204160C3F800C000BD00BF04
:103BB00004800340DFF81CC0C90041EA82015CF8C0
:103BC00020200CEB8003514003F5805301F00C01E1
:103BD0001960704704800340064B402203EB8003CA
:103BE00019B103F500531A60704703F540531A608A
:103BF000704700BF048003404FF0000300B543EC62
:103C0000440043EC40004FF0050E4FF4807C0C4B19
:103C1000C20053F8201003EB800081F0400102F154
:103C2000804303F5203301F0C00200F5805100F518
:103C300040500A60C3F804E0C0F800C000BD00BFF7
:103C4000048003400FB400B5084883B005F0F2F8D3
:103C5000049B3BB105A91846019104F087FF044875
:103C600005F0E8F8012004F099FF00BF5873011037
:103C700020740110EFF3108072B6064BD3E8CF1F0B
:103C800001220029FAD1C3E8412F0029F6D1BFF360
:103C90005F8F70479F5000200023034AC2E88F3F88
:103CA00080F31088704700BF9F50002070B5164603
:103CB000EFF3108472B6DFF848E0DEE8CF2F01237F
:103CC000002AFAD1CEE8423F002AF6D1BFF35F8F37
:103CD000012301F0070CCA0803FA0CF310F802C024
:103CE0001CEA030508D14CEA030C00F802C0CEE838
:103CF0008F5F84F3108870BD3046FFF7A3FF00BFCD
:103D00009F500020F8B50F461946EFF3108672B6A3
:103D10001C4DD5E8CF4F0123002CFAD1C5E8443F14
:103D2000002CF6D1BFF35F8F8A421BD8012402E03A
:103D30000132914222D3D30810F803E002F0070CBD
:103D400004FA0CFC1EEA0C0FF2D14EEA0C0E00F83D
:103D500003E010460023C5E88F3F86F310889842A1
:103D600007DBF8BD0023C5E88F3F86F310884FF0CE
:103D7000FF30002FF5D00698FFF764FF4FF0FF30BB
:103D8000E8E700BF9F50002000B5EFF3108E72B639
:103D9000104BD3E8CFCF0122BCF1000FF9D1C3E81B
:103DA0004C2FBCF1000FF4D1BFF35F8F01224FEA1B
:103DB000D10C01F0070102FA01F110F80C2022EAFF
:103DC000010200F80C200022C3E88F2F8EF3108828
:103DD00000BD00BF9F500020044A1078431CDBB296
:103DE000182B28BF10231370704700BF3823002002
:103DF00000B5DFF81CC083B001461F231822CDF8A0
:103E000000C00248FFF77EFF03B000BD345200201F
:103E1000687301104FF0E022936843F00053936001
:103E2000704700BF0021044B03F12002C3E88F1F3D
:103E300001339342FAD17047945000204FF0E023B1
:103E40004FF08032C3F80024C3F80424C3F80824D8
:103E5000C3F80C24C3F81024C3F81424C3F818249E
:103E6000C3F81C24C3F82024C3F82424C3F828244E
:103E7000C3F82C24C3F8302462B67047012300F045
:103E80001F029340400941B1800000F1604000F5FD
:103E90006140C0F8803103607047024A203042F828
:103EA0002030704700E100E00123064A410952F842
:103EB000212000F01F008340134214BF0120002086
:103EC000704700BF00E100E001224309034900F010
:103ED0001F008240403341F82320704700E100E09A
:103EE000054A10309268054B52F82000C01A472846
:103EF0008CBF00200120704700ED00E03C23002033
:103F000008B5EFF3108E72B6134BD3E8CFCF012272
:103F1000BCF1000FF9D1C3E84C2FBCF1000FF4D174
:103F2000BFF35F8F0D4A10309268DFF834C052F84B
:103F30002020624501D091420BD1084A926842F894
:103F40002010BFF35F8F0022C3E88F2F8EF31088FD
:103F500008BD01F0EBF800BF9D50002000ED00E02F
:103F6000110100102DE9F84F8B461146EFF3108830
:103F700072B6664FD7E8CF2F0123002AFAD1C7E8DF
:103F8000423F002AF6D1BFF35F8F614B93F90040A7
:103F9000002CC0F2B88000F110055E4804EB440923
:103FA00000EB890296794FEA89091E705A4B9B688B
:103FB00053F82560331A472B35D826F0010E9EF8AA
:103FC00007308B4209D86FE00CEB4C0300EB830306
:103FD00093F807A08A4551D99E469EF906C0BCF1C8
:103FE000000FF1DA4BF601590EF1040A131FA3EB8F
:103FF0000A03C3F34A036FEAC3436FEAD3438EF85D
:104000000640DFF820A104EB440400EB8402AEF884
:10401000043040F824A0A2F8049082F806C0D171C0
:10402000C2F808B01DE03D4B9E426CD13C4BD171B3
:1040300009F102010144043B5B1AC3F34A036FEA2E
:10404000C3434FF421416FEAD34320F80910538052
:10405000FF214BF60153C2F808B09171938042F0F2
:1040600001062D4B9B6843F82560BFF35F8F00234B
:10407000C7E88F3F88F31088BDE8F88FF2466FF0ED
:104080000703A3EB09033AF8049F1B1A49F30A0933
:1040900009F102090AEB49099944C9F34A096FEA8F
:1040A000C9496FEAD949A1E76FF00703D1711C49EB
:1040B00009F1020404440439091BA3EB0903C1F309
:1040C0004A011B1A6FEAC1417344C3F34A036FEA02
:1040D000C3436FEAD1414FF421466FEAD343518085
:1040E000104920F8096093804AF6AA2473461B1AE7
:1040F0005B415C43240DC2F808B0947142F00106A4
:10410000CEF80010ADE701F011F800BF9D5000207F
:10411000207500203C23002000ED00E0110100107C
:1041200084230020014880472DE9F041EFF3058307
:10413000DBB29E46EFF3108572B62F49D1E8CF2F40
:104140000123002AFAD1C1E8423F002AF6D1BFF389
:104150005F8FDFF8B48040F00106D8F808704AF6A7
:10416000AA2357F82E700446244AA41A64416343D4
:104170001B0DB7425BB226D092F906409C4228D074
:1041800092F912409C422FD092F91E409C422DD0B1
:1041900092F92A409C422BD092F936409C4229D079
:1041A00092F942409C4208BF052413D0144A0024CF
:1041B00092F800C0137080F806C0C1E88F4F85F3F5
:1041C0001088BDE8F081D8F808200E4C42F82E4047
:1041D000ECE7002404EB440402EB8402FF24947116
:1041E0004BF601549480E1E70124F3E70224F1E760
:1041F0000324EFE70424EDE79D5000203C2300203A
:10420000207500201101001000ED00E000B5DFF87E
:1042100024C083B0014605230022CDF800C0044825
:10422000FFF770FD0028A8BFC0F1330003B000BD48
:104230002A75002084730110014B0B440360704702
:104240009450002070B5104C104DAC420ED2FF2699
:10425000236863B1FFF7C0FD01462046FFF7ECFF7E
:10426000A680BFF35F8F0834AC42F1D370BDFFF777
:10427000B3FD01462046FFF7DFFF2671BFF35F8FD6
:104280000834AC42E4D370BD18260020202600205C
:1042900010B50446FFF7A0FD01462046FFF7CCFF0E
:1042A000FF232371BFF35F8F10BD00BF10B504461D
:1042B0000120FFF79DFD034B03442360BFF35F8F95
:1042C00010BD00BF94500020024B0B440360BFF3AD
:1042D0005F8F70479450002010490B68EFF31080F7
:1042E00072B6D3E8CFCF0122BCF1000FF9D1C3E8F9
:1042F0004C2FBCF1000FF4D1BFF35F8F084A4FF091
:10430000000C1378096801331370C1E88FCF80F374
:10431000108840BF00200021704700BFF0740020CB
:1043200022750020000000002DE9F04F2DED028BDA
:1043300085B0EFF30583DBB2103B9A0818BF01226A
:104340004FF0010103F0030B18BFA94CA94B08BFA4
:10435000A94C0BEB820253F8225001FA0BF204F540
:1043600041539FEDA18B02925A602FE0AB88190454
:1043700040F19480AB79002B40F0DE80B5F9086005
:10438000002EC0F21C816B6906EB460603EBC603E8
:10439000D3E90267B7F1FF3F08BFB6F1FF3F0ED088
:1043A00004EB8B01A36A0A69D21AF31A934205D36C
:1043B0000123226A03FA0BF3134200D10E61204657
:1043C00000F00AFCB042B941C0F2F980B5F90860CA
:1043D000029B002EE363C9DBD5F8149006EB460A76
:1043E00009EBCA07BB682046D7F80C80019300F0A0
:1043F000F3FB019B984271EB0801B7DBB8F1000FAA
:10440000C0F2C080D7E904317C4A934200F0F880C2
:104410007A88B5F9080092B242EA0040984702460D
:104420000B4652EA030100F0AD80002B80F2CD80F4
:104430000199B1EB020E68EB030839F93A30C7E98C
:1044400002E8002B92DB686903EB430200EBC20237
:10445000D2E90271BE4578EB010C4FEA430285DBDD
:10446000AC462CF8083F06E003EB430100EBC1012A
:104470005A00D1E90271BE4578EB01011A4405DB0F
:1044800030F9323000EBC20C002BEDDA29F83A306B
:10449000ACF80060AB8819043FF56CAF2B69EFF303
:1044A000108272B6D3E8CF0F01210028FAD1C3E8F9
:1044B000401F0028F6D1BFF35F8F4FF6FF76A88824
:1044C0000023296900B2AE80C1E88F3F82F31088D3
:1044D0009842FFF64FAF0746A1466E6905F10808FE
:1044E000B5F9083007EB470E002BC44606EBCE02A9
:1044F00015DBD2E90240AA46019704E036F93530CF
:104500009446002B09DB03EB430506EBC502D2E919
:104510000271BC4270EB0101F0DA5546019FACF824
:10452000007036F93E7026F83E30002FD8DAAB79AD
:104530004C46002B3FF422AF0023AB71B5F9086065
:10454000721C33463BD0686905F1080E03E08E46C5
:104550005A1C3FF415AF03EB430200EBC2014F8836
:104560009C463F0430F93230F1D5664581ED028B2F
:10457000EED0AEF800302989664620F83210A5F852
:1045800008C0E5E739F83A302B812B69EFF3108248
:1045900072B6D3E8CF0F01210028FAD1C3E8401F3B
:1045A0000028F6D1BFF35F8F6B88296929F83A306C
:1045B00000236E80C1E88F3F82F31088D6E640BFAB
:1045C00005B0BDEC028BBDE8F08F2046039301924D
:1045D00000F002FB019A039B10EB020E43EB010873
:1045E0002BE700BFAFF30080FFFFFFFFFFFFFFFFE0
:1045F00000800B40CC60002000000B4029430010DD
:1046000008460B69039198470028BBD00399D1E96C
:10461000002306E738B5384B1C692CB1BDE838409B
:104620000A213648FFF708BE0321354800F0C2FAD8
:10463000334D314BDD60FFF7CFFB324A4FF0504E28
:10464000024403202C4B4FF00F0C18701A61DEF857
:1046500000204FF6FF715A705A69A3F802C0148304
:104660004FF00204A2F848404FF00404A2F878404A
:104670004FF00504A2F890404FF00604A2F8A840BD
:104680004FF00704A2F8C0404FF00904A2F8F04030
:104690004FF00A04A2F808414FF00B04A2F82041A1
:1046A0004FF00C04A2F838414FF0010414864FF08B
:1046B0000804A2F8D840144C4FF00D0E4FF00E0C29
:1046C0009C6008249980A2F850E1A2F868C1A2F881
:1046D000600011800D4A2C620D49D360FFF710FC79
:1046E00001210320FFF7CAFB0A4B0A211C6403487F
:1046F000BDE83840FFF7A0BDA8230020F0740020DB
:1047000000000B4094500020FFFF1000CC60002000
:104710002943001000200B4000487047A8230020C8
:10472000F0B583B09DF828401D46034654B9CDE945
:10473000000200F059FA019A009B824265EB0101E8
:10474000A1425BDB1969EFF3108072B6D1E8CF6F3D
:104750000124002EFAD1C1E8464F002EF6D1BFF356
:104760005F8FB3F902401F69002C3EDBD3F814C001
:1047700004EB440E3CF83E10002659800CEBCE01B1
:10478000C7E88F6F80F310884888C1E9022501309F
:10479000C0F30E00012838BF0120089A48800A6142
:1047A000099A40EA04404A611A69EFF3108172B62F
:1047B000D2E8CF7F0125002FFAD1C2E8475F002F52
:1047C000F6D1BFF35F8F9A882CF83E201A699C803F
:1047D000C2E88F6F81F3108801211C78DA68A1404C
:1047E00002F50153596003B0F0BD0023C7E88F3FC5
:1047F00080F310884FF0FF3003B0F0BD204603B0C7
:10480000F0BD00BFF0B516461F4602690346EFF340
:10481000108072B6D2E8CF4F0121002CFAD1C2E845
:10482000441F002CF6D1BFF35F8FB3F902101D694E
:10483000002945DBD3F814E001EB41023EF8324099
:104840000EEBC20C5C800024C5E88F4F80F310880B
:1048500005983546CCF8100006983E46CCF8140072
:10486000BCF80200CCE902560130C0F30E0001286A
:1048700038BF0120ACF8020040EA0140D3F810C074
:10488000EFF3108572B6DCE8CF7F0126002FFAD156
:10489000CCE8476F002FF6D1BFF35F8FB3F804C0A9
:1048A0002EF832C099801A69C2E88F4F85F31088BC
:1048B00001211C78DA68A14002F501535960F0BD6E
:1048C0000023C5E88F3F80F310884FF0FF30F0BD24
:1048D00003464089B0EB214F3ADD58690A1402EBD8
:1048E000420210B5D3F810C000EBC200EFF3108EF7
:1048F00072B6DCE8CF4F0122002CFAD1CCE8442F6D
:10490000002CF6D1BFF35F8F428889B292B28A42FF
:1049100007D000221B69C3E88F2F8EF31088002078
:1049200010BD6FEA42426FEA5242428001210022EA
:1049300018699971C0E88F2F8EF3108893F800C022
:10494000DA68084602F5015301FA0CF1596010BD0E
:1049500000207047407870472DE9F04383B0064649
:1049600000F042F94FF47A7304464FF0FF306FF0D5
:104970000042E6FB0341A04272EB01033ABF04464A
:1049800015460D46A61F45F1FF37B44275EB0703E8
:104990003CBF0026374600F027F9301A67EB0101CB
:1049A000012871F1000106DA2046294603B0BDE86E
:1049B000F04300F053B900F017F9864267EB0101AC
:1049C00000290ADB00211D4B324600931C483B4660
:1049D0000191FFF717FF0130E6D04FF0000E194AA2
:1049E000DFF868C01849536A9F4204D8906AB04201
:1049F000DAD29F42D8D1DCF80030EFF3108072B6E3
:104A0000D3E8CF9F5FF00108B9F1000FF8D1C3E8F8
:104A1000498FB9F1000FF3D1BFF35F8F0B785FFAC5
:104A200083F8DCF80030C3E88FEF80F31088087853
:104A3000804500D120BF20BFD5E700BFD94200107C
:104A4000A823002000000B4022750020F0740020F5
:104A5000F0B5024685B0EFF30585EDB2002D61D1CA
:104A60000B46424CD4E90001994208BF90424AD01B
:104A7000CDE902233E4BDF681E78384600F0ACF8E3
:104A800006F1040C57F82CC0029A039BACEB000C07
:104A9000101A63EB0101604571F1000133DACDE9D1
:104AA000022300F0A1F8029A039B824263EB01010A
:104AB000002949DB2F492E4800910195CDE90232AA
:104AC000FFF7A0FEDDE90232011E3DDD2A48C4E900
:104AD0000023446A9C4246D3806A904241D32448D2
:104AE000CDE90232FFF7F4FE2349029B486A98425F
:104AF0001CD314BF012000208B6A039A934228BF65
:104B000040F001000CE020BF1B49486A98420DD3D9
:104B100014BF012000208B6A934228BF40F001009F
:104B200005B0F0BD1448436A8B4202D2002005B0A4
:104B3000F0BD14BF01230023816A914234BF18469F
:104B400043F0010005B0F0BD0B49486A9842EDD32F
:104B5000C01A18BF01208B6A934228BF40F00100A1
:104B6000DEE79C42BBD120BFB9E700BFA0230020F5
:104B7000A8230020D942001000000B40084BD0E9C8
:104B800000C15A6A914208D814BF012000209B6AD4
:104B9000634528BF40F0010070470020704700BF08
:104BA00000000B4001460248C1E90023704700BFE6
:104BB0007D4B001010B4054B054C064AA04214BFB3
:104BC0001846581C10BCFFF771B800BF38520020BF
:104BD00000800B40A07301100346416A0A46986AA0
:104BE000596A8A42FAD17047034B596A0A46986A51
:104BF000596A9142FAD1704700000B4000B58E46C9
:104C0000154A536A9C46916A536A6345FAD1401823
:104C100053EB0E034FF0000228BF0122BAB10E4B36
:104C20005A6A531C08BF104608D04FF0FF3318468D
:104C300009494A6A9A42FCD39A4207D1064B02E0DC
:104C4000596A914202D1996A8142F9D300BD024A60
:104C5000526A9342ECD8EFE700000B40074A536AD0
:104C60009942FCD8994207D1044B02E05A6A91421A
:104C700002D19A6A9042F9D8704700BF00000B40F9
:104C800070B5044682B006200E4600F0EFF800280A
:104C900044D0384A3848944214BF4FF080624FF0F5
:104CA0000062364B364902601A608D6832EA0505AB
:104CB000FBD1304A4FF48070A21AB2FA82F2314925
:104CC000520921F81200062000F0D0F8C200B2FB11
:104CD000F6F20132D10923D1402601236362A16299
:104CE000256BEB0725D42346002153F82C2F0620F3
:104CF00003F5805211602563019200F0B7F840F28D
:104D0000013503218000B0FBF6F0E36A019A83F0DD
:104D1000700303F07E0313602563A16402B070BDCD
:104D20004FF6FE7081421DD929464FF6FF73164E8D
:104D3000D4E740F2013204F540531A63636AA26A71
:104D4000062002EB8312019200F090F80F4B019ABB
:104D5000A3FB00139002DB0AB0FBF3F00021FFF786
:104D60004DFFC0E7C2F345020B4602EB8116114628
:104D7000B4E700BF0080074000200240003002403E
:104D80000000024000750020C0FF3F00757B2B8FA4
:104D900000EB400C4FEA8C0C0CF1804C0CF5803C85
:104DA00070B51E46DCF80430041FB3F5803F38BFF1
:104DB0004FF48033E4B238BFCCF80430012C2ED944
:104DC0004FF40065284B0CF5405ECEF8005053F8C8
:104DD00020E0BEF1000F17D1DCF800E0012C8EEAD4
:104DE000421202F0E0020CF5805ECEF800202BD9D2
:104DF0004FF4006143F820604FF480330CF500520B
:104E00001160CCF8043070BD5D69B5FBFEFE0EF19B
:104E1000010E0EEB4E0EBEF1030EFCD2DCE70129B3
:104E2000CED103240CF540531C60DCF80830DB07BE
:104E3000FBD5DCF800300CF5805E83EA421303F00A
:104E4000E003CEF80030084B0122DCF800404C4073
:104E500004F00304CEF8004002FA01F1DCF8082067
:104E60000A42FBD0C4E700BF40520020014B53F878
:104E7000200070474052002010B5029C8E464FEA39
:104E8000043C4CEA034C1C4BB3FBF1F30168B2FB4E
:104E9000F3F4002920DB194A194B904214BF4FF458
:104EA00080424FF4004217491A6003F580531A609C
:104EB0008B6832EA0303FBD1212200F5405304330F
:104EC000C0F800E084601A600268002AFCDA082258
:104ED000C0F80CC01A6010BD036803F03F037345AF
:104EE000D9D18368C3F30B03A342D4D1C36803F4BD
:104EF000EE236345CFD110BD001BB70000800540F5
:104F00000020024000000240024A034B12685A602F
:104F1000704700BF9C60002000800D4000B54FF03E
:104F2000804E184B184ADFF86CC0DA61174A03F557
:104F30004053C3F800E0C2F808C04FF0E062F1B19E
:104F4000A3F580531A6020B94FF00042104B1A604D
:104F500000BD4FF47A7303FB00F0B0F1807F2ABFED
:104F60006FF07F43034618464FF08042DFF828C0B9
:104F70000449CCF80030064B48601A6000BD1A6046
:104F8000E1E700BF00800D402131B76A00A0014079
:104F900000A00D40F3FFFF019C6000204FF0804C0B
:104FA000214B00B5C3F800C0002839D0DFF888C015
:104FB000A3F54053C3F81CC0DFF880C040F00100E7
:104FC00080EA0C0CC3F820C0596298624FF0804E02
:104FD0004FF0E061144B1548DFF864C0C3F800E0FF
:104FE000C0F808C019602AB94FF00042A3F58053F9
:104FF0001A6000BD4FF47A7303FB02F2B2F1807FB6
:105000002ABF6FF07F4313461A464FF08041DFF806
:1050100034C00748CCF80030064B4260196000BD30
:10502000034BD861D2E700BF00B00D4000A00140A3
:1050300000800D4000A00D40D3C007B02D3FF84FB9
:10504000F3FFFF019C600020012300EB4000800083
:1050500000F1804000F5841041600360704700BF9C
:1050600010B5002482B00B46E48A002141E800F12B
:10507000CDE900034B0254BF1021042144F2522019
:10508000A047DDE9002386460A214FF48170F446EB
:1050900002B0BDE8104060470023DB8A002242E8EE
:1050A00000F2520201D4102118470421184700BF12
:1050B00008B503460846191E02DB1AB140F030005D
:1050C000FFF7CEFF40F02000FAE700BF034AD2F816
:1050D0002838002BFBD0BFF35F8F704700000E40D5
:1050E0000021044B044ABFF35F8F43F8041B934233
:1050F000F9D170470C080E402C080E404FF42A6C72
:105100004FF48D70054A064B0649C2F800C0D060C6
:1051100019605368002BFCDA704700BF0080044020
:1051200000A0044000B0FA00704700BF08B5014875
:10513000FEF788FDC473011038B5054C054DAC422F
:1051400004D254F8043B9847AC42FAD338BD00BFB0
:1051500038720110787201100648DFF828C0064B3B
:10516000064A0749C0F800C01A608B6832EA030398
:10517000FBD170470020024000300240F6FFF303ED
:10518000000002407F3BEFEF044BDB6CB3F5004FB8
:1051900003D14FF48022024BDA64704700001150B3
:1051A000002011504FF0E022044BD2F8881D0B4331
:1051B000C2F8883D10EE3004704700BF0303300092
:1051C0006FF06041044B054A19609368DB4333F08C
:1051D0006043FAD1704700BF003002400000024037
:1051E00010B545F25320FFF757FFBDE810400346C6
:1051F0000420184710B545F25320FFF74DFFBDE8D6
:105200001040034601201847FEF70CBE1349144B0B
:1052100070B55C1AA508442D2A4628BF4422114EB9
:105220009200304611F0BCFF432D13D80E4A0FD028
:10523000C5F144003319410803EBC101C3E9002261
:1052400008338B42FAD1C30704D520F0010005448E
:1052500046F82520054B9E6070BD00BF0000001081
:1052600010010010000000201101001000ED00E00E
:10527000002370B52B4C82B0C4F88430FFF73EFF9A
:105280000122294BDA63636C012BFCD10321264AEE
:10529000244B11639C6B012CFCD102260525214671
:1052A0000523224A22480096FFF7E6FD21462B46B9
:1052B000204A21480095FFF7DFFD002204203146F7
:1052C0001E4BFFF765FD2146284600221C4BFFF7C9
:1052D0005FFD0022082011461A4BFFF759FD0022FE
:1052E00009201146174BFFF753FD002206201146F7
:1052F000134BFFF74DFD0022114B07201146FFF71E
:1053000047FD0420FFF7B2FD00240F4BA3FB00353F
:10531000AD0CE0B229460134FFF796FE062CF8D119
:1053200002B070BD0000014000300140002F6859FC
:1053300000000540008C864700800540001BB70038
:1053400080D1F008006CDC0283DE1B43000000000B
:105350002DE9F04FC1F30A5916461F4689B0A9F24C
:10536000FF38B9F1000F30D040F2FF7291452CD0D8
:105370000024C9F57F720332201801EB025101F0BD
:1053800018F987A3D3E9002300F004FD0022864B1F
:1053900004460D4600F002FE48B120462946002290
:1053A000824B00F0BFFC04460D46A9F2FE38B8F16E
:1053B000000F22D132463B462046294600F0C6FC6B
:1053C00009B0BDE8F04F00F0ABBA01F0F2F874A3F9
:1053D000D3E9002300F0DEFC0022734B04460D46A7
:1053E00000F0DCFD48B12046294600226F4B00F05A
:1053F00099FC04460D46A9F2FE3830463946002293
:105400006B4B00F0B7FD48B1B8F1000F4FF0000052
:10541000C0F2B680674909B0BDE8F08F3046394622
:105420000022654B00F092FD8146002840F0A280EA
:105430003046394600F032FA0B46024682468B4629
:105440003046394600F06EFC1A22CDE9020100F028
:1054500003FA00F023FAC1F30A5340F2FF7C064638
:105460000F464BB1634507D01A2BD5BF4E460646B3
:1054700001F00047A1F1D0775946504600F00AFDEF
:105480008146404600F0E2FC32463B46CDE904014D
:1054900000F05CFC82468B4600F000FA0A460146AA
:1054A0001346CDE9001202465946504600F03AFC38
:1054B000DDE902AB32463B46CDE90601504659468E
:1054C00000F030FCDDE9042300F040FCDDE90623B8
:1054D00000F014FCCDE90401484600F0B7FC224678
:1054E0002B4600F033FC06460F4600F0D7F90A467B
:1054F00001461346CDE9021202463946304600F015
:1055000011FCDDE9042300F0F9FB06460F462246B4
:105510002B465046594600F019FC32463B4600F0F7
:10552000EDFB00F0FDF9C1F30A5440F2FF730D46A4
:105530000646002C3FF46FAF9C423FF46CAFDDE9B0
:10554000000100F0A7FC08FB09F70744DDE90201B0
:1055500000F0A0FCC3191C44002C1ADD40F2FE72BE
:10556000944211DD05F0004545F0FF41002041F473
:10557000E00150E7B8F1000F4FF00000FFF64AAF2E
:10558000002109B0BDE8F08F002205EB035190190E
:1055900041E7002005F000413DE700BFAFF3008088
:1055A000EF39FAFE422EE63F0000E03F0000F03FF8
:1055B0000000B0400000F07F0000B0C0012A2DE9DB
:1055C000F84F6CD002EBD2735B10012B06460F46EE
:1055D000144698464FD01346002AB8BFD31C9B10E0
:1055E000012B994600F082801346002AB8BFD31DD4
:1055F000DB10012B9A4658D01346002AB8BF02F19F
:105600000F031B11012B9B4673D01346002AB8BF12
:1056100002F11F035B11012B1D4674D0002AB8BF95
:105620003F329211FFF7CAFF02460B4600F08EFB95
:10563000ED0702460B465FD41046194600F086FB84
:105640001BF0010F02460B4605D032463B4600F0E8
:105650007DFB02460B461046194600F077FB1AF018
:10566000010F02460B4622D032463B4600F06EFB4D
:1056700002460B461BE002460B461046194600F058
:1056800065FBE40702460B4605D532463B4600F073
:105690005DFB02460B4610461946BDE8F88F0246F0
:1056A0000B4610461946BDE8F88F02460B461046D9
:1056B000194600F04BFB19F0010F02460B4605D0CE
:1056C00032463B4600F042FB02460B461046194666
:1056D00000F03CFB18F0010F02460B46CDD03246DD
:1056E0003B4600F033FB02460B46C6E702460B463C
:1056F000ECE702460B46AEE732463B4600F026FB9F
:1057000002460B4698E702460B4695E700292DE92D
:10571000F04716461F4604460D4680F28D80C3F3BF
:105720000A53A3F2FF33342B26D84FF0FF31C3F1D5
:10573000340CC3F1140801FA08FA01FA0CF9A3F1C8
:10574000140E49EA0A0921FA0EFA49EA0A0901FA8D
:105750000CF122EA010127EA090951EA09010BD1FA
:1057600073B322FA0CF007FA0EFE40EA0E0027FA95
:1057700008F21043C30723D405F100431D46A04699
:1057800099463046394600F085FB2B0D824602468D
:1057900007D040F2FF70834203D0C5F313012143C9
:1057A0001DD0BAF1000F17D00AF12003402B30D9D9
:1057B00032463B4640464946BDE8F047FFF7C8BD84
:1057C0003B463246204605F10041FFF79FFF01F1BD
:1057D00000431946BDE8F08700201C49FAE71C4A3F
:1057E000A3F2FF335245B8BF52468242A8BF0246D9
:1057F00002FB03F101F2FF33002B20DD40F2FE72C9
:1058000093421FDC0022114800EB01531946104659
:10581000E0E7BAF1000F09DA42464B4600200B4997
:1058200000F0B8FA80468946CAF10002404649466F
:10583000BDE8F047FFF7C2BE80468946A1E70020D9
:105840000021C7E700200349C4E700BF0000F03F84
:1058500000F8FFFF0000F07FC1F30A53C3B110B599
:1058600040F2FF7E73450ED01344002B8C460BDDB7
:1058700040F2FE718B420CDD00200CF0004C4CF02D
:10588000FF4141F4E00110BD002001F0004110BDD6
:10589000704700230CEB0251181810BDC1F30A53D6
:1058A000A3F2FF33B3F1FF3F0A462CDB2FD0332B9B
:1058B00028DC012170B506460220C3F13304C3F190
:1058C000130E133B21FA03F301FA0EFE4EEA030E08
:1058D000A4F1200C01FA04F3C4F120059B1920FA6D
:1058E00005F100FA0CFC00FA04F042EB0E024CEA5F
:1058F000010ED0F1000C6EEB4E0E0CEA03000EEA26
:10590000020170BD7047002001F00041704701F0B6
:10591000004242F07F51002041F44011704700BF27
:1059200040F6FF7CBCEB115F40D0F8B500222A4B5B
:1059300005460E4600F00AFBA8BB00222846314669
:10594000264B00F017FB044698BB28463146FFF76C
:10595000A5FF00F09FFA074600F078FA02460B46D2
:105960002846314600F0DEF919A3D3E9002300F000
:10597000EDF900F0A0FCC1F30A5340F2FF7C86462B
:105980000A467BB163450DD03B44A34214DD40F28F
:10599000FE718B4214DD204602F0004242F0FF41CE
:1059A00041F4E001F8BD00200021F8BD00200021F5
:1059B000704700200A49F8BD204601F00041F8BDBB
:1059C00014EB0E0002EB0751F8BD00BFAFF30080EF
:1059D000EF39FAFE422EE63F0000B0C00000B040B2
:1059E0000000F07F2DE9F04F14461D4683B00022E1
:1059F000AD4B8046894600F083FA002840F0818054
:105A0000C5F30A572E46BA460194002F44D04046AB
:105A100049460022A54B00F073FA002841D040F21D
:105A2000FF739F4238D040F2FF722B0D934200F07B
:105A3000938040F2FF319D4B40F6FF72300D904253
:105A400000F0A580AAF2FF32002AC0F20A81332AB0
:105A500019DC4FF0FF31C2F1340EC2F1140C01FA1F
:105A60000CFC01FA0EF0143A21FA02F240EA0C00A2
:105A70001043019A01FA0EF122EA010126EA000020
:105A8000014340F0EE8022462B464046494603B093
:105A9000BDE8F04FFFF73ABE0020834903B0BDE8F0
:105AA000F08F4B46C9F30A52190D7ABB8542A7F213
:105AB000FF3235DB342A54D84FF0FF332746C2F18A
:105AC0003400C2F1140403FA04FC03FA00F1A2F159
:105AD000140541EA0C0123FA05FC41EA0C0183405C
