:020000041000EA
:10000000002008205B0100101B0100101D010010E2
:100010001101001011010010110100101101001058
:100020001901001019010010190100101F01001022
:10003000110100101901001021010010230100100E
:100040001101001011010010110100101101001028
:100050001101001011010010110100101101001018
:100060001101001011010010110100101101001008
:1000700011010010110100101101001011010010F8
:1000800011010010110100101101001011010010E8
:1000900011010010110100101101001011010010D8
:1000A00011010010110100101101001011010010C8
:1000B00011010010110100101101001011010010B8
:1000C00011010010110100101101001011010010A8
:1000D0001101001011010010110100101101001098
:1000E0001101001011010010110100101101001088
:1000F0001101001011010010110100101101001078
:100100001101001011010010110100101101001067
:10011000EFF30580103800BE00BE00BE00BE00BE7A
:1001200000BE00BEF2EB887198F60010B8F6001021
:100130009C01001090A31AE7D3DEFFFF42012110BB
:10014000FF01000048170100793512AB00201E495D
:10015000086006C881F3088810474FF050400068D7
:1001600008B10020F3E70DA40ECC002902D000F066
:1001700012F8F9E71549164A002000E001C1914242
:10018000FCD114498847144988471449884700BE60
:10019000FDE701C901C29A42FBD37047B8F60010CF
:1001A00010010020D8220020801801100000082033
:1001B000000008208018011000E0072000E0072060
:1001C000000000007047000008ED00E0D822002089
:1001D000F46D0020E1570010BD020010D957001047
:1001E00070B584B0044600F0FDFF4FF0000343EC0F
:1001F000444000220121204600F0D2FF022001F0FD
:100200009FFE1F2C4FF001022DD84FF050460021C9
:10021000756802FA04F31D42204614BF15460D46C8
:10022000039300F0BDFF022001F08AFE039B726879
:100230001A4214BF012300230022204611460393D3
:1002400000F0AEFF039B45BB174A1849AB4214BFF1
:1002500094468C462A462146CDF800C0144805F045
:10026000ABFC04B070BD4FF050460021B568A4F15E
:10027000200302FA03F31D42204614BF15460D4623
:10028000039300F08DFF022001F05AFE039BB26839
:10029000134214BF01230023CEE7064A0649002B70
:1002A0000CBF94468C46D5E778E5001040E5001079
:1002B000D0E50010A0E5001028E500102DE9F04F72
:1002C0009DB005F0B7FB00F0D9F902E0642001F021
:1002D00037FE05F099FE0028F8D04FF4FA7001F0CF
:1002E0002FFEB84805F0EAFB30231A221E21B6483B
:1002F00005F062FCB54805F0E1FB1E20FFF770FF3A
:100300001F20FFF76DFF2020FFF76AFFB04805F0C0
:10031000D5FB2720FFF764FF2820FFF761FF1E2091
:1003200000F060FF4FF000061E2046EC4400002263
:10033000012100F035FFA74805F0C0FB4FF0030A8C
:100340001A2546EC40504FF4967001F0F9FD142444
:1003500000274FF05048D8F804301420C3F38073BE
:100360001F4401F0EDFD013CF5D139469A4805F0F6
:1003700023FC4FF0010343EC40504FF4967001F022
:10038000DFFD14274FF05048D8F804301420C3F391
:1003900080731C4401F0D4FD013FF5D121468F4804
:1003A00005F00AFCBAF1010ACBD11A234AEC40301D
:1003B0004FF4FA798A4805F0FFFBDFF8508289484C
:1003C00005F07CFB0DF13907CDF800A0CDF804A0B5
:1003D0001A26009D0DF13B0B0DF1070AA8FB051431
:1003E000640909FB1454B4F5967F2CBF0021012148
:1003F00041EC4060142001F0A3FDB4F5967F2CBFC2
:100400002E2123214FF050440AF8011F6168143552
:1004100011F0804F0CBF2E212321BA450BF8011F8C
:10042000DCD10026019B02AA5D1C29466E480FAB59
:1004300001958DF86E608DF83A6005F0BDFB009A6D
:10044000062D02F57A720092C2D11A2346EC403092
:10045000664805F033FB4FF002094FF00108122304
:1004600046EC4030112348EC40304FF4C87001F0A6
:1004700067FD0027142563681420C3F380731F44AD
:1004800001F05EFD013DF6D13946594805F094FB77
:100490004FF4167001F054FD112346EC40304FF438
:1004A000C87001F04DFD142763681420C3F38073F6
:1004B0001D4401F045FD013FF6D129464D4805F0A8
:1004C0007BFB122348EC40304FF4C87001F038FD3C
:1004D000142563681420C3F380731F4401F030FDBA
:1004E000013DF6D13946444805F066FB4FF41670DD
:1004F00001F026FD122346EC40304FF4C87001F0A5
:100500001FFD142763681420C3F380731D4401F09A
:1005100017FD013FF6D12946364805F04DFBB9F1EC
:10052000010F45D1112347EC4030122347EC4030F6
:10053000324805F0C3FA636803F08044C3F380795E
:1005400001F046FE002938D04FF47A7200230DF0F6
:100550008FFF06467CB32A4B4A460021294805F006
:100560002BFB294C294F12E04FF47A7200230DF037
:100570007FFF234B811BB8F1000F08BF23462A469B
:10058000204805F019FB052001F0DAFCA9464FF0E0
:1005900050435B68C3F38075A94503F08048F2D0EF
:1005A00001F016FE0029DFD1A7FB00308009E0E74B
:1005B0004FF0010953E7144BCEE74FF47A73B0FBC9
:1005C000F3F6C7E720E600104CE6001098E60010AE
:1005D000C4E6001008E700104CE7001074E70010B4
:1005E0009CE70010E0E70010F8E7001018E80010A2
:1005F0005CE8001088E80010B4E80010E0E80010A3
:10060000ECE5001020E9001008E60010D34D621060
:100610000023FF22C0E90033C0E90233C0E90433FC
:10062000827170470000000000239FED057BC0E948
:10063000013380ED047B0380704700BFAFF300807F
:10064000000000000000000000239FED097B037004
:1006500080ED027B80ED067B80ED0A7B43600361C9
:1006600080F8203080F83030704700BFAFF3008052
:10067000000000000000000001F082BE2DE9F04FF4
:1006800097B008AB1C464FF0010900279F4A0DF1B7
:100690002C0807CA83E8070054F8045B284600F0DA
:1006A000A1FD4FF0010343EC44504FF0000646EC2F
:1006B00040504445F0D19648FFF7AAFF9548FFF710
:1006C000B3FF1E2000F08EFD1E2046EC44000022E9
:1006D000012100F065FD07F03FFC1F212E2000F0F6
:1006E00041FD00222E20114600F05AFD00212E204F
:1006F00000F068FD132000F075FD152000F072FD7C
:100700004FF0130846EC44804FF0150A46EC44A025
:1007100001220021404600F043FD01220021504605
:1007200000F03EFD03237C4D7C4ECDE901392A4685
:1007300031467B48CDF8008007AB07F0A7FF0028C3
:1007400040F081807749784807F08AFD03211C201A
:1007500000F008FD03211D2000F004FD002201210E
:100760001C2000F01DFD002201211D2000F018FDBD
:100770006E4800F0CDF900F02DFC092000F032FDAC
:100780004FF00104092344EC403044EC443044EC85
:1007900040300C2000F026FD0C2344EC403044ECAB
:1007A000443044EC40300D2000F01CFD0D2344EC9F
:1007B000403044EC443044EC40302F2000F012FD37
:1007C0002F2344EC403044EC443044EC4030584952
:1007D000584807F0A9FD0121082000F0C3FC0121C1
:1007E0000A2000F0BFFC01210B2000F0BBFC5248A6
:1007F00000F08EF900F068FA01F0EAFCC9B14FF49C
:100800007A7200230DF034FE024600234B4800F0BC
:10081000D5FB01F0DDFC89B14FF47A7200230DF0B5
:1008200027FE02460023464800F0C8FB17B0BDE88B
:10083000F08F444BA3FB00308209E6E7414BA3FB5A
:1008400000308209EEE700974246012329683068AC
:1008500007F042FE0097524601232968306807F0EE
:100860003BFE4FF480324FF4F833CDE910234FF4C0
:100870004023A4461293079B139703F10E02DB015A
:1008800043EA0233049323F0F8530DF1400B43F095
:10089000A852D8465F460592BBE80F00ACE80F00AF
:1008A0004FF0FF31A246A646049BCCF800100C93F3
:1008B000DCF800300493BAE80F00A8E80F00049BAE
:1008C000CBF800300FCFAEE80F004FF418230E9393
:1008D0001D4B059A0F934FF400230C920D93079A2A
:1008E00023462968306807F03DFE00287FF42AAFD0
:1008F00032682B68106809FA03F30343134914485C
:10090000136081F80090FFF79FFE1BE720EB0010BB
:100910008025002028250020D84D0020D44D00201F
:10092000F8EA0010A0860100B8200020941F0020E3
:1009300040420F0000800840681F0020D81F0020A0
:10094000C01F0020D34D6210FFFF10FEEC6D002091
:1009500040250020F0B5047889B0012C05461646E4
:100960001F468DF8171040D0447801F031FC4FF04D
:10097000FF326FF0004310F5FA5041F1000182425E
:1009800073EB010C3CBF104619460123CDE902016F
:100990000DF1170221462A48009307F08DFC00282C
:1009A00020DB6D7801F014FC4FF0FF326FF0004354
:1009B00010F5FA5041F10004824273EB04013CBF90
:1009C00010461C462946002502903B4632460394B9
:1009D00000951B4807F08CFCA842B4BF0020012002
:1009E00009B0F0BD002009B0F0BDCBB2022163F028
:1009F0007F038DF81F301348134B4268596003681A
:100A00000A4083F00703114903F0CF030B60104B3A
:100A10005A60AB784FF0000242EC403022460DF1B4
:100A20001F010DF045FD3B463246002105480DF003
:100A300047FDAB7844EC4030204609B0F0BD00BF24
:100A4000B82000200080084000B008400090084016
:100A500000A0084030B5037889B0012B04468DF81A
:100A60001C108DF81D2021D043784FF0FF341D4617
:100A700001F0AEFB6FF0004210F5FA5041F10003B7
:100A8000844272EB03013CBF204613460024CDE9AB
:100A900002032946022307AA0094184807F00CFC19
:100AA000A042B4BF0020012009B030BD144801F0BD
:100AB0007F018DF81C104268124902F0020C0222DC
:100AC00005934A600168DFF844E081F0070101F016
:100AD000CF01CEF800100C49C1F804C0A1784FF046
:100AE000000C4CEC401007A90DF0E2FCA278059B2D
:100AF00043EC4020184609B030BD00BFB8200020AC
:100B00000080084000B0084000A008400090084065
:100B100070B5D0220025037892B0012B80F82550C3
:100B200004468DF81F508DF8202000F09C804578F9
:100B300001F04EFB4FF0FF326FF0004310F5FA501A
:100B400041F1000C824273EB0C013CBF10469C4605
:100B5000012302902946574808AACDF80CC00093FB
:100B600007F0AAFB002822DB63784FF0FF351E4612
:100B700001F02EFB6FF0004210F5FA5041F1000336
:100B8000854272EB03013CBF2846134600250290C4
:100B900003933146012347480DF11F02009507F0EA
:100BA000A7FBA84203DB9DF81F30602B02D000207A
:100BB00012B070BD1A23882120460AAAFFF7CAFE88
:100BC0000028F4D00723E121204608AAFFF7C2FE3F
:100BD0000028ECD0BDF828209DF824309DF8230093
:100BE0009DF82510A280BDF82A202281BDF82C2076
:100BF0006281BDF82E20E2800C9AE2600D9A22619B
:100C00000E9A62610F9AA2619DF841202277BDF889
:100C10002020E2839DF8222062779DF8265003F081
:100C20000F021B0942EA001243EA01132284F22157
:100C300001222046638484F82450FFF70BFF00282C
:100C4000B5D02722F4212046FFF704FF0028AED0BC
:100C50004022F5212046FFF7FDFE0028A7D0012302
:100C600084F82530A4E702208DF82820124E134A7C
:100C7000716850603268014082F00702104802F04B
:100C8000CF0202600F4A5160A27845EC40201A461C
:100C90000AA9304605930DF00BFC059B0DF11F02D0
:100CA000294630460DF00CFCA278059B43EC402011
:100CB00079E700BFB82000200080084000B008405D
:100CC0000090084000A00840F0B500240C269FEDDD
:100CD000307B0321304D85B00095304B304D314A8B
:100CE000C3E9004414603048304A2E719C60304F94
:100CF000304B314E87ED007BC2E900448DF80F1078
:100D000094600A2114731C600B220823286034604D
:100D100000F05CF8287900F071F8284B2946009320
:100D20002448274B274A07F029FE28B1214B306081
:100D30001C60002005B0F0BD1E4C206807F01AFEB4
:100D4000034628B91949206807F004FF034660B13B
:100D50001848336008F010F80023164A1360134A4D
:100D6000C2E9003393601373E3E7174920680DF17C
:100D70000F0207F06FFE03460028E9D1206807F054
:100D8000A5FF03460028E3D10120D3E7AFF300809D
:100D9000000000000000000040420F00AC5A00209C
:100DA000C44D0020A45A002000800840BC6D0020E3
:100DB00078250020E04D0020A85A0020890F00105F
:100DC000D90E00101D0E00103CE9001030B583B0A4
:100DD0000D460699CDE9003207F0A6FA0446012136
:100DE000284600F0BFF90198012100F0BBF90098F6
:100DF000012100F0B7F9204603B030BD00B583B043
:100E0000019000F0EFF94FF00103019843EC40002E
:100E100043EC440043EC400003B000BD2DE9F04139
:100E200084B0ADF8061000283CD0002A38D0904697
:100E30000268022711461D4651F8043F90F804C08D
:100E4000044601F540500760106802F5805E80F0AE
:100E50000F003B4001F5005100F0CF00CEF800003C
:100E600000260B6046EC40C000BF00BF00BF01235E
:100E700020680DF10E020DF10601ADF80E600DF0C7
:100E80000FFB01281CD185B9002000BF00BF00BFA7
:100E90004FF00102237942EC403004B0BDE8F0810C
:100EA000002BC4D06FF00100F7E72B4642463146D5
:100EB00020680DF011FB8542E6D06FF00100E4E7F9
:100EC00000BF00BF00BF4FF00102237942EC403069
:100ED0004FF0FF30E1E700BF2DE9F04182B0ADF8FF
:100EE0000610002839D0002A35D01D460368022795
:100EF0009C4690465CF8042F01790CF5405637600B
:100F000003F5805E1B683A4083F00F030CF5005C2C
:100F100003F0CF030446CEF800304FF00000CCF8C9
:100F2000002040EC401000BF00BF00BF012220683D
:100F30000DF106010DF070FA01281BD185B9284684
:100F400000BF00BF00BF4FF00102237942EC4030E8
:100F500002B0BDE8F081002BC7D04FF0FF30F7E7BB
:100F60002A46414620680DF057FA281A18BF4FF05C
:100F7000FF30E5E700BF00BF00BF4FF0010223795B
:100F800042EC4030E9E700BF38B541F2883398427F
:100F900010D8044650B10A2C254628BF0A25FFF771
:100FA0006BFB284600F0CCFF641BF4D1FFF764FB19
:100FB000002038BD6FF0020038BD00BF002112F5DF
:100FC000FA7243F10003C0E9033182604170017598
:100FD000704700BF2DE9F0474FF000094FF0FE0ABF
:100FE0004F465D4C5D4E86B004F1040816F8015B77
:100FF00004F8017B002D3ED08DF813A001F0E8F835
:101000004FF0FF326FF0004310F57A6041F10001BC
:10101000824273EB010C3CBF104619460123CDE917
:1010200002010DF1130229464D48009307F044F9DF
:10103000002820DB01F0CCF84FF0FF326FF00043C6
:1010400010F57A6041F10001824273EB010C3CBF64
:10105000104619460097CDE902010223294640486F
:1010600005AA07F045F9002805DB44F65413BDF83E
:1010700014209A4205D04445B8D1484606B0BDE890
:10108000F087FF238DF8133001F0A2F84FF0FF3204
:101090006FF0004310F57A6041F10001824273EB7A
:1010A000010C3CBF104619460123CDE902010DF1A8
:1010B000130229462A48009307F0FEF80028DADBDD
:1010C00001F086F84FF0FF326FF0004310F57A60C0
:1010D00041F10001824273EB010C3CBF10461946FE
:1010E0000023CDE902010093294602231C4805AAEA
:1010F00007F0FEF80028BEDB46F22203BDF81420FC
:101100009A42B8D14FF48A43ADF8143027238DF8B2
:10111000163001F05DF84FF0FF326FF0004310F52C
:101120007A6041F10001824273EB010C3CBF104632
:1011300019460023CDE902010093294603230848FC
:1011400005AA07F0B9F8002895DB012309F1010988
:1011500004F8013C8FE700BFEC5A00202CEB001094
:10116000B82000204FF4807C0C4B00B553F82020B1
:1011700003EB8003C00082F0400200F1804003F5E1
:10118000805E02F0C00200F5203003F54053CEF837
:1011900000204160C3F800C000BD00BF04800340D0
:1011A000DFF81CC0C90041EA82015CF820200CEB8A
:1011B0008003514003F5805301F00C011960704722
:1011C00004800340064B402203EB800319B103F572
:1011D00000531A60704703F540531A60704700BF10
:1011E000048003404FF0000300B543EC440043EC9F
:1011F00040004FF0050E4FF4807C0C4BC20053F8BA
:10120000201003EB800081F0400102F1804303F5E0
:10121000203301F0C00200F5805100F540500A6013
:10122000C3F804E0C0F800C000BD00BF0480034064
:101230000FB400B5084883B004F040FC049B3BB1F8
:1012400005A91846019104F0ABFA044804F036FCF5
:10125000012004F0BDFA00BF54E9001038E9001085
:10126000EFF3108072B6064BD3E8CF1F012200299E
:10127000FAD1C3E8412F0029F6D1BFF35F8F704741
:10128000174C00200023034AC2E88F3F80F31088E8
:10129000704700BF174C002070B51646EFF310845E
:1012A00072B6DFF848E0DEE8CF2F0123002AFAD13A
:1012B000CEE8423F002AF6D1BFF35F8F012301F051
:1012C000070CCA0803FA0CF310F802C01CEA030565
:1012D00008D14CEA030C00F802C0CEE88F5F84F31B
:1012E000108870BD3046FFF7A3FF00BF174C0020E9
:1012F000F8B50F461946EFF3108672B61C4DD5E8C7
:10130000CF4F0123002CFAD1C5E8443F002CF6D181
:10131000BFF35F8F8A421BD8012402E00132914261
:1013200022D3D30810F803E002F0070C04FA0CFCF7
:101330001EEA0C0FF2D14EEA0C0E00F803E0104644
:101340000023C5E88F3F86F31088984207DBF8BD7D
:101350000023C5E88F3F86F310884FF0FF30002F41
:10136000F5D00698FFF764FF4FF0FF30E8E700BFC5
:10137000174C002000B5EFF3108E72B6104BD3E877
:10138000CFCF0122BCF1000FF9D1C3E84C2FBCF143
:10139000000FF4D1BFF35F8F01224FEAD10C01F0AF
:1013A000070102FA01F110F80C2022EA010200F80C
:1013B0000C200022C3E88F2F8EF3108800BD00BFE1
:1013C000174C0020044A1078431CDBB2182B28BFAE
:1013D00010231370704700BFF01F002000B5DFF826
:1013E0001CC083B001461F231822CDF800C002485C
:1013F000FFF77EFF03B000BD684D002064E90010D8
:101400004FF0E022936843F000539360704700BFB1
:101410000021044B03F12002C3E88F1F01339342E4
:10142000FAD170470C4C00204FF0E0234FF080328F
:10143000C3F80024C3F80424C3F80824C3F80C2418
:10144000C3F81024C3F81424C3F81824C3F81C24C8
:10145000C3F82024C3F82424C3F82824C3F82C2478
:10146000C3F8302462B67047012300F01F02934096
:10147000400941B1800000F1604000F56140C0F8D2
:10148000803103607047024A203042F820307047B4
:1014900000E100E00123064A410952F8212000F052
:1014A0001F008340134214BF01200020704700BF7B
:1014B00000E100E001224309034900F01F008240DF
:1014C000403341F82320704700E100E0054A103026
:1014D0009268054B52F82000C01A47288CBF0020A4
:1014E0000120704700ED00E0F41F002008B5EFF385
:1014F000108E72B6134BD3E8CFCF0122BCF1000F90
:10150000F9D1C3E84C2FBCF1000FF4D1BFF35F8FCA
:101510000D4A10309268DFF834C052F8202062453E
:1015200001D091420BD1084A926842F82010BFF3D3
:101530005F8F0022C3E88F2F8EF3108808BD00F064
:10154000F1FF00BF154C002000ED00E0110100107C
:101550002DE9F84F8B461146EFF3108872B6664FAF
:10156000D7E8CF2F0123002AFAD1C7E8423F002A4B
:10157000F6D1BFF35F8F614B93F90040002CC0F2AE
:10158000B88000F110055E4804EB440900EB8902C5
:1015900096794FEA89091E705A4B9B6853F825606B
:1015A000331A472B35D826F0010E9EF807308B42B0
:1015B00009D86FE00CEB4C0300EB830393F807A012
:1015C0008A4551D99E469EF906C0BCF1000FF1DA5A
:1015D0004BF601590EF1040A131FA3EB0A03C3F3E0
:1015E0004A036FEAC3436FEAD3438EF80640DFF83D
:1015F00020A104EB440400EB8402AEF8043040F870
:1016000024A0A2F8049082F806C0D171C2F808B0F4
:101610001DE03D4B9E426CD13C4BD17109F1020162
:101620000144043B5B1AC3F34A036FEAC3434FF41C
:1016300021416FEAD34320F809105380FF214BF674
:101640000153C2F808B09171938042F001062D4B0E
:101650009B6843F82560BFF35F8F0023C7E88F3F87
:1016600088F31088BDE8F88FF2466FF00703A3EB0C
:1016700009033AF8049F1B1A49F30A0909F1020900
:101680000AEB49099944C9F34A096FEAC9496FEA63
:10169000D949A1E76FF00703D1711C4909F1020490
:1016A00004440439091BA3EB0903C1F34A011B1AC3
:1016B0006FEAC1417344C3F34A036FEAC3436FEA5D
:1016C000D1414FF421466FEAD3435180104920F8AD
:1016D000096093804AF6AA2473461B1A5B415C4357
:1016E000240DC2F808B0947142F00106CEF8001043
:1016F000ADE700F017FF00BF154C0020ED6D002096
:10170000F41F002000ED00E0110100103C2000203B
:10171000014880472DE9F041EFF30583DBB29E4697
:10172000EFF3108572B62F49D1E8CF2F0123002A9D
:10173000FAD1C1E8423F002AF6D1BFF35F8FDFF84C
:10174000B48040F00106D8F808704AF6AA2357F88A
:101750002E700446244AA41A644163431B0DB74209
:101760005BB226D092F906409C4228D092F91240F2
:101770009C422FD092F91E409C422DD092F92A40D3
:101780009C422BD092F936409C4229D092F942409B
:101790009C4208BF052413D0144A002492F800C0CC
:1017A000137080F806C0C1E88F4F85F31088BDE83C
:1017B000F081D8F808200E4C42F82E40ECE70024C7
:1017C00004EB440402EB8402FF2494714BF60154B1
:1017D0009480E1E70124F3E70224F1E70324EFE733
:1017E0000424EDE7154C0020F41F0020ED6D0020CF
:1017F0001101001000ED00E000B5DFF824C083B057
:10180000014605230022CDF800C00448FFF770FD13
:101810000028A8BFC0F1330003B000BDF36D002065
:1018200080E90010014B0B44036070470C4C002012
:1018300070B5104C104DAC420ED2FF26236863B138
:10184000FFF7C0FD01462046FFF7ECFFA680BFF37F
:101850005F8F0834AC42F1D370BDFFF7B3FD014692
:101860002046FFF7DFFF2671BFF35F8F0834AC42DD
:10187000E4D370BDD0220020D822002010B5044649
:10188000FFF7A0FD01462046FFF7CCFFFF232371A1
:10189000BFF35F8F10BD00BF10B504460120FFF7F6
:1018A0009DFD034B03442360BFF35F8F10BD00BF5A
:1018B0000C4C0020024B0B440360BFF35F8F70475A
:1018C0000C4C002010490B68EFF3108072B6D3E87F
:1018D000CFCF0122BCF1000FF9D1C3E84C2FBCF1EE
:1018E000000FF4D1BFF35F8F084A4FF0000C13785C
:1018F000096801331370C1E88FCF80F3108840BFAF
:1019000000200021704700BFCC6D0020EF6D00204B
:101910002DE9F04F2DED028B85B0EFF30583DBB29F
:10192000103B9A0818BF01224FF0010103F0030B8E
:1019300018BFA94CA94B08BFA94C0BEB820253F866
:10194000225001FA0BF204F541539FEDA18B029254
:101950005A602FE0AB88190440F19480AB79002BDA
:1019600040F0DE80B5F90860002EC0F21C816B6982
:1019700006EB460603EBC603D3E90267B7F1FF3F68
:1019800008BFB6F1FF3F0ED004EB8B01A36A0A69D2
:10199000D21AF31A934205D30123226A03FA0BF3F6
:1019A000134200D10E61204600F00AFCB042B9415A
:1019B000C0F2F980B5F90860029B002EE363C9DB31
:1019C000D5F8149006EB460A09EBCA07BB68204617
:1019D000D7F80C80019300F0F3FB019B984271EB68
:1019E0000801B7DBB8F1000FC0F2C080D7E90431BD
:1019F0007C4A934200F0F8807A88B5F9080092B2E8
:101A000042EA0040984702460B4652EA030100F0C2
:101A1000AD80002B80F2CD800199B1EB020E68EB16
:101A2000030839F93A30C7E902E8002B92DB68690C
:101A300003EB430200EBC202D2E90271BE4578EB30
:101A4000010C4FEA430285DBAC462CF8083F06E068
:101A500003EB430100EBC1015A00D1E90271BE451D
:101A600078EB01011A4405DB30F9323000EBC20C8F
:101A7000002BEDDA29F83A30ACF80060AB88190495
:101A80003FF56CAF2B69EFF3108272B6D3E8CF0F3E
:101A900001210028FAD1C3E8401F0028F6D1BFF386
:101AA0005F8F4FF6FF76A8880023296900B2AE80C9
:101AB000C1E88F3F82F310889842FFF64FAF074688
:101AC000A1466E6905F10808B5F9083007EB470E25
:101AD000002BC44606EBCE0215DBD2E90240AA4633
:101AE000019704E036F935309446002B09DB03EB0F
:101AF000430506EBC502D2E90271BC4270EB01015D
:101B0000F0DA5546019FACF8007036F93E7026F8C1
:101B10003E30002FD8DAAB794C46002B3FF422AF91
:101B20000023AB71B5F90860721C33463BD068697D
:101B300005F1080E03E08E465A1C3FF415AF03EB87
:101B4000430200EBC2014F889C463F0430F932301B
:101B5000F1D5664581ED028BEED0AEF800302989D3
:101B6000664620F83210A5F808C0E5E739F83A30A3
:101B70002B812B69EFF3108272B6D3E8CF0F0121CE
:101B80000028FAD1C3E8401F0028F6D1BFF35F8FC9
:101B90006B88296929F83A3000236E80C1E88F3FAD
:101BA00082F31088D6E640BF05B0BDEC028BBDE8DD
:101BB000F08F20460393019200F002FB019A039BF1
:101BC00010EB020E43EB01082BE700BFAFF30080E0
:101BD000FFFFFFFFFFFFFFFF00800B40CC5A0020FC
:101BE00000000B401119001008460B69039198473B
:101BF0000028BBD00399D1E9002306E738B5384B5C
:101C00001C692CB1BDE838400A213648FFF70ABEEE
:101C10000321354800F0C2FA334D314BDD60FFF748
:101C2000D1FB324A4FF0504E024403202C4B4FF070
:101C30000F0C18701A61DEF800204FF6FF715A7011
:101C40005A69A3F802C014834FF00204A2F8484076
:101C50004FF00404A2F878404FF00504A2F8904039
:101C60004FF00604A2F8A8404FF00704A2F8C040C5
:101C70004FF00904A2F8F0404FF00A04A2F808411E
:101C80004FF00B04A2F820414FF00C04A2F83841A9
:101C90004FF0010414864FF00804A2F8D840144C09
:101CA0004FF00D0E4FF00E0C9C6008249980A2F8A6
:101CB00050E1A2F868C1A2F8600011800D4A2C62C0
:101CC0000D49D360FFF712FC01210320FFF7CCFB85
:101CD0000A4B0A211C640348BDE83840FFF7A2BD47
:101CE00060200020CC6D002000000B400C4C002038
:101CF000FFFF1000CC5A00201119001000200B40EB
:101D00000048704760200020F0B583B09DF828405F
:101D10001D46034654B9CDE9000200F059FA019A74
:101D2000009B824265EB0101A1425BDB1969EFF385
:101D3000108072B6D1E8CF6F0124002EFAD1C1E82D
:101D4000464F002EF6D1BFF35F8FB3F902401F69F3
:101D5000002C3EDBD3F814C004EB440E3CF83E10DC
:101D6000002659800CEBCE01C7E88F6F80F31088F6
:101D70004888C1E902250130C0F30E00012838BFB0
:101D80000120089A48800A61099A40EA04404A61A1
:101D90001A69EFF3108172B6D2E8CF7F0125002FC8
:101DA000FAD1C2E8475F002FF6D1BFF35F8F9A8860
:101DB0002CF83E201A699C80C2E88F6F81F310884E
:101DC00001211C78DA68A14002F50153596003B083
:101DD000F0BD0023C7E88F3F80F310884FF0FF303D
:101DE00003B0F0BD204603B0F0BD00BFF0B516460D
:101DF0001F4602690346EFF3108072B6D2E8CF4F58
:101E00000121002CFAD1C2E8441F002CF6D1BFF307
:101E10005F8FB3F902101D69002945DBD3F814E088
:101E200001EB41023EF832400EEBC20C5C80002414
:101E3000C5E88F4F80F3108805983546CCF8100020
:101E400006983E46CCF81400BCF80200CCE90256D5
:101E50000130C0F30E00012838BF0120ACF80200A9
:101E600040EA0140D3F810C0EFF3108572B6DCE809
:101E7000CF7F0126002FFAD1CCE8476F002FF6D193
:101E8000BFF35F8FB3F804C02EF832C099801A698F
:101E9000C2E88F4F85F3108801211C78DA68A140D1
:101EA00002F501535960F0BD0023C5E88F3F80F370
:101EB00010884FF0FF30F0BD03464089B0EB214F52
:101EC0003ADD58690A1402EB420210B5D3F810C08B
:101ED00000EBC200EFF3108E72B6DCE8CF4F0122A8
:101EE000002CFAD1CCE8442F002CF6D1BFF35F8F41
:101EF000428889B292B28A4207D000221B69C3E8A5
:101F00008F2F8EF31088002010BD6FEA42426FEAD7
:101F1000524242800121002218699971C0E88F2F36
:101F20008EF3108893F800C0DA68084602F5015372
:101F300001FA0CF1596010BD0020704740787047DD
:101F40002DE9F04383B0064600F042F94FF47A736E
:101F500004464FF0FF306FF00042E6FB0341A04221
:101F600072EB01033ABF044615460D46A61F45F124
:101F7000FF37B44275EB07033CBF0026374600F03D
:101F800027F9301A67EB0101012871F1000106DA27
:101F90002046294603B0BDE8F04300F023B900F025
:101FA00017F9864267EB010100290ADB00211D4B6E
:101FB000324600931C483B460191FFF717FF013062
:101FC000E6D04FF0000E194ADFF868C01849536A8E
:101FD0009F4204D8906AB042DAD29F42D8D1DCF84E
:101FE0000030EFF3108072B6D3E8CF9F5FF00108A6
:101FF000B9F1000FF8D1C3E8498FB9F1000FF3D15F
:10200000BFF35F8F0B785FFA83F8DCF80030C3E82A
:102010008FEF80F310880878804500D120BF20BF63
:10202000D5E700BFC51800106020002000000B405D
:10203000EF6D0020CC6D0020F0B5024685B0EFF3C7
:102040000585EDB2002D61D10B46424CD4E900016B
:10205000994208BF90424AD0CDE902233E4BDF6847
:102060001E78384600F0ACF806F1040C57F82CC086
:10207000029A039BACEB000C101A63EB0101604564
:1020800071F1000133DACDE9022300F0A1F8029AE0
:10209000039B824263EB0101002949DB2F492E4853
:1020A00000910195CDE90232FFF7A0FEDDE9023291
:1020B000011E3DDD2A48C4E90023446A9C4246D300
:1020C000806A904241D32448CDE90232FFF7F4FE02
:1020D0002349029B486A98421CD314BF0120002068
:1020E0008B6A039A934228BF40F001000CE020BFA6
:1020F0001B49486A98420DD314BF012000208B6A07
:10210000934228BF40F0010005B0F0BD1448436A77
:102110008B4202D2002005B0F0BD14BF0123002382
:10212000816A914234BF184643F0010005B0F0BD0A
:102130000B49486A9842EDD3C01A18BF01208B6A38
:10214000934228BF40F00100DEE79C42BBD120BF94
:10215000B9E700BF5820002060200020C5180010FB
:1021600000000B40084BD0E900C15A6A914208D8E0
:1021700014BF012000209B6A634528BF40F0010086
:1021800070470020704700BF00000B400146024826
:10219000C1E90023704700BF6521001010B4054B52
:1021A000054C064AA04214BF1846581C10BCFFF745
:1021B00073B800BF6C4D002000800B409CE90010FC
:1021C0000346416A0A46986A596A8A42FAD17047B8
:1021D000034B596A0A46986A596A9142FAD1704784
:1021E00000000B40074A536A9942FCD8994207D134
:1021F000044B02E05A6A914202D19A6A9042F9D89D
:10220000704700BF00000B4000EB400C4FEA8C0C05
:102210000CF1804C0CF5803C70B51E46DCF80430A7
:10222000041FB3F5803F38BF4FF48033E4B238BFAA
:10223000CCF80430012C2ED94FF40065284B0CF556
:10224000405ECEF8005053F820E0BEF1000F17D1E9
:10225000DCF800E0012C8EEA421202F0E0020CF5FC
:10226000805ECEF800202BD94FF4006143F8206047
:102270004FF480330CF500521160CCF8043070BD7F
:102280005D69B5FBFEFE0EF1010E0EEB4E0EBEF1CA
:10229000030EFCD2DCE70129CED103240CF5405318
:1022A0001C60DCF80830DB07FBD5DCF800300CF5EF
:1022B000805E83EA421303F0E003CEF80030084B5F
:1022C0000122DCF800404C4004F00304CEF800404A
:1022D00002FA01F1DCF808200A42FBD0C4E700BF93
:1022E000744D0020014B53F820007047744D0020BE
:1022F00010B5029C8E464FEA043C4CEA034C1C4B42
:10230000B3FBF1F30168B2FBF3F4002920DB194AB7
:10231000194B904214BF4FF480424FF400421749CA
:102320001A6003F580531A608B6832EA0303FBD10D
:10233000212200F540530433C0F800E084601A60A5
:102340000268002AFCDA0822C0F80CC01A6010BD2E
:10235000036803F03F037345D9D18368C3F30B03CC
:10236000A342D4D1C36803F4EE236345CFD110BD9B
:10237000001BB70000800540002002400000024022
:10238000024A034B12685A60704700BFBC5A0020D3
:1023900000800D404FF0804C214B00B5C3F800C0C9
:1023A000002839D0DFF888C0A3F54053C3F81CC01B
:1023B000DFF880C040F0010080EA0C0CC3F820C0B8
:1023C000596298624FF0804E4FF0E061144B15480F
:1023D000DFF864C0C3F800E0C0F808C019602AB98B
:1023E0004FF00042A3F580531A6000BD4FF47A739A
:1023F00003FB02F2B2F1807F2ABF6FF07F431346E6
:102400001A464FF08041DFF834C00748CCF800305E
:10241000064B4260196000BD034BD861D2E700BF94
:1024200000B00D4000A0014000800D4000A00D4014
:10243000D3C007B02D3FF84FF3FFFF01BC5A002077
:10244000012300EB4000800000F1804000F5841083
:1024500041600360704700BF10B5002482B00B4696
:10246000E48A002141E800F1CDE900034B0254BFAA
:102470001021042144F25220A047DDE900238646C2
:102480000A214FF48170F44602B0BDE81040604765
:102490000023DB8A002242E800F2520201D410211C
:1024A00018470421184700BF08B503460846191EFF
:1024B00002DB1AB140F03000FFF7CEFF40F0200001
:1024C000FAE700BF034AD2F82838002BFBD0BFF34D
:1024D0005F8F704700000E400021044B044ABFF399
:1024E0005F8F43F8041B9342F9D170470C080E40EC
:1024F0002C080E404FF42A6C4FF48D70054A064BA1
:102500000649C2F800C0D06019605368002BFCDA9D
:10251000704700BF0080044000A0044000B0FA00F3
:10252000704700BF08B50148FEF782FEC0E9001001
:1025300038B5054C054DAC4204D254F8043B9847DD
:10254000AC42FAD338BD00BFE0E4001020E5001033
:102550000648DFF828C0064B064A0749C0F800C005
:102560001A608B6832EA0303FBD1704700200240F7
:1025700000300240F6FFF303000002407F3BEFEF24
:10258000044BDB6CB3F5004F03D14FF48022024BB8
:10259000DA64704700001150002011504FF0E02223
:1025A000044BD2F8881D0B43C2F8883D10EE30046E
:1025B000704700BF030330006FF06041044B054AD1
:1025C00019609368DB4333F06043FAD1704700BF72
:1025D000003002400000024010B545F25320FFF7E2
:1025E00057FFBDE8104003460420184710B545F2D8
:1025F0005320FFF74DFFBDE8104003460120184768
:10260000FEF706BF1349144B70B55C1AA508442D9C
:102610002A4628BF4422114E920030460BF0E4FEB9
:10262000432D13D80E4A0FD0C5F144003319410889
:1026300003EBC101C3E9002208338B42FAD1C3077F
:1026400004D520F00100054446F82520054B9E6086
:1026500070BD00BF0000001010010010000000203D
:102660001101001000ED00E0002370B52B4C82B08A
:10267000C4F88430FFF73EFF0122294BDA63636C14
:10268000012BFCD10321264A244B11639C6B012CA6
:10269000FCD10226052521460523224A2248009620
:1026A000FFF726FE21462B46204A21480095FFF7DA
:1026B0001FFE0022042031461E4BFFF7A5FD2146D8
:1026C000284600221C4BFFF79FFD002208201146E0
:1026D0001A4BFFF799FD002209201146174BFFF70F
:1026E00093FD002206201146134BFFF78DFD0022BB
:1026F000114B07201146FFF787FD0420FFF7F2FD7D
:1027000000240F4BA3FB0035AD0CE0B22946013489
:10271000FFF796FE062CF8D102B070BD0000014014
:1027200000300140002F685900000540008C8647AA
:1027300000800540001BB70080D1F008006CDC026F
:1027400083DE1B43000000002DE9F04FC1F30A595E
:1027500016461F4689B0A9F2FF38B9F1000F30D0F4
:1027600040F2FF7291452CD00024C9F57F720332EC
:10277000201801EB025101F018F987A3D3E90023D7
:1027800000F004FD0022864B04460D4600F002FED8
:1027900048B1204629460022824B00F0BFFC044687
:1027A0000D46A9F2FE38B8F1000F22D132463B4661
:1027B0002046294600F0C6FC09B0BDE8F04F00F005
:1027C000ABBA01F0F2F874A3D3E9002300F0DEFC09
:1027D0000022734B04460D4600F0DCFD48B1204654
:1027E000294600226F4B00F099FC04460D46A9F2E1
:1027F000FE383046394600226B4B00F0B7FD48B139
:10280000B8F1000F4FF00000C0F2B680674909B080
:10281000BDE8F08F304639460022654B00F092FD4E
:102820008146002840F0A2803046394600F032FA56
:102830000B46024682468B463046394600F06EFC17
:102840001A22CDE9020100F003FA00F023FAC1F3E5
:102850000A5340F2FF7C06460F464BB1634507D052
:102860001A2BD5BF4E46064601F00047A1F1D0779E
:102870005946504600F00AFD8146404600F0E2FC11
:1028800032463B46CDE9040100F05CFC82468B46B3
:1028900000F000FA0A4601461346CDE9001202464E
:1028A0005946504600F03AFCDDE902AB32463B4661
:1028B000CDE906015046594600F030FCDDE904231D
:1028C00000F040FCDDE9062300F014FCCDE9040132
:1028D000484600F0B7FC22462B4600F033FC064683
:1028E0000F4600F0D7F90A4601461346CDE9021219
:1028F00002463946304600F011FCDDE9042300F0C1
:10290000F9FB06460F4622462B465046594600F034
:1029100019FC32463B4600F0EDFB00F0FDF9C1F337
:102920000A5440F2FF730D460646002C3FF46FAF89
:102930009C423FF46CAFDDE9000100F0A7FC08FB0E
:1029400009F70744DDE9020100F0A0FCC3191C44AB
:10295000002C1ADD40F2FE72944211DD05F00045B4
:1029600045F0FF41002041F4E00150E7B8F1000FCD
:102970004FF00000FFF64AAF002109B0BDE8F08F2C
:10298000002205EB0351901941E7002005F00041BA
:102990003DE700BFAFF30080EF39FAFE422EE63F7D
:1029A0000000E03F0000F03F0000B0400000F07F7A
:1029B0000000B0C0012A2DE9F84F6CD002EBD273B1
:1029C0005B10012B06460F46144698464FD013461F
:1029D000002AB8BFD31C9B10012B994600F08280BF
:1029E0001346002AB8BFD31DDB10012B9A4658D0DE
:1029F0001346002AB8BF02F10F031B11012B9B469F
:102A000073D01346002AB8BF02F11F035B11012BDC
:102A10001D4674D0002AB8BF3F329211FFF7CAFF9B
:102A200002460B4600F08EFBED0702460B465FD4D4
:102A30001046194600F086FB1BF0010F02460B46BC
:102A400005D032463B4600F07DFB02460B46104661
:102A5000194600F077FB1AF0010F02460B4622D010
:102A600032463B4600F06EFB02460B461BE0024638
:102A70000B461046194600F065FBE40702460B467C
:102A800005D532463B4600F05DFB02460B4610463C
:102A90001946BDE8F88F02460B4610461946BDE8B8
:102AA000F88F02460B461046194600F04BFB19F012
:102AB000010F02460B4605D032463B4600F042FB72
:102AC00002460B461046194600F03CFB18F0010F79
:102AD00002460B46CDD032463B4600F033FB024661
:102AE0000B46C6E702460B46ECE702460B46AEE74E
:102AF00032463B4600F026FB02460B4698E702466C
:102B00000B4695E700292DE9F04716461F46044677
:102B10000D4680F28D80C3F30A53A3F2FF33342BAA
:102B200026D84FF0FF31C3F1340CC3F1140801FA79
:102B300008FA01FA0CF9A3F1140E49EA0A0921FA7C
:102B40000EFA49EA0A0901FA0CF122EA010127EA20
:102B5000090951EA09010BD173B322FA0CF007FA03
:102B60000EFE40EA0E0027FA08F21043C30723D4F2
:102B700005F100431D46A04699463046394600F00F
:102B800085FB2B0D8246024607D040F2FF70834240
:102B900003D0C5F3130121431DD0BAF1000F17D0A4
:102BA0000AF12003402B30D932463B464046494685
:102BB000BDE8F047FFF7C8BD3B463246204605F169
:102BC0000041FFF79FFF01F100431946BDE8F08780
:102BD00000201C49FAE71C4AA3F2FF335245B8BF54
:102BE00052468242A8BF024602FB03F101F2FF33C4
:102BF000002B20DD40F2FE7293421FDC00221148C0
:102C000000EB015319461046E0E7BAF1000F09DA6C
:102C100042464B4600200B4900F0B8FA80468946F0
:102C2000CAF1000240464946BDE8F047FFF7C2BE80
:102C300080468946A1E700200021C7E7002003491C
:102C4000C4E700BF0000F03F00F8FFFF0000F07F86
:102C5000C1F30A53C3B110B540F2FF7E73450ED0E5
:102C60001344002B8C460BDD40F2FE718B420CDDD1
:102C700000200CF0004C4CF0FF4141F4E00110BD8D
:102C8000002001F0004110BD704700230CEB025101
:102C9000181810BDC1F30A53A3F2FF33B3F1FF3F7D
:102CA0000A462CDB2FD0332B28DC012170B50646D9
:102CB0000220C3F13304C3F1130E133B21FA03F3D3
:102CC00001FA0EFE4EEA030EA4F1200C01FA04F301
:102CD000C4F120059B1920FA05F100FA0CFC00FA5A
:102CE00004F042EB0E024CEA010ED0F1000C6EEB48
:102CF0004E0E0CEA03000EEA020170BD7047002080
:102D000001F00041704701F0004242F07F51002085
:102D100041F44011704700BF40F6FF7CBCEB115FEF
:102D200040D0F8B500222A4B05460E4600F00AFBBB
:102D3000A8BB002228463146264B00F017FB04466C
:102D400098BB28463146FFF7A5FF00F09FFA0746DB
:102D500000F078FA02460B462846314600F0DEF9CC
:102D600019A3D3E9002300F0EDF900F0A0FCC1F3B2
:102D70000A5340F2FF7C86460A467BB163450DD07C
:102D80003B44A34214DD40F2FE718B4214DD204629
:102D900002F0004242F0FF4141F4E001F8BD0020A2
:102DA0000021F8BD00200021704700200A49F8BD2D
:102DB000204601F00041F8BD14EB0E0002EB075174
:102DC000F8BD00BFAFF30080EF39FAFE422EE63FB8
:102DD0000000B0C00000B0400000F07F2DE9F04FCF
:102DE00014461D4683B00022AD4B8046894600F054
:102DF00083FA002840F08180C5F30A572E46BA4670
:102E00000194002F44D0404649460022A54B00F0D3
:102E100073FA002841D040F2FF739F4238D040F24D
:102E2000FF722B0D934200F0938040F2FF319D4BD7
:102E300040F6FF72300D904200F0A580AAF2FF32FA
:102E4000002AC0F20A81332A19DC4FF0FF31C2F1A7
:102E5000340EC2F1140C01FA0CFC01FA0EF0143A13
:102E600021FA02F240EA0C001043019A01FA0EF135
:102E700022EA010126EA0000014340F0EE802246EA
:102E80002B464046494603B0BDE8F04FFFF73ABE37
:102E90000020834903B0BDE8F08F4B46C9F30A52C6
:102EA000190D7ABB8542A7F2FF3235DB342A54D89C
:102EB0004FF0FF332746C2F13400C2F1140403FA85
:102EC00004FC03FA00F1A2F1140541EA0C0123FA13
:102ED00005FC41EA0C01834027EA030326EA0101CD
:102EE0000B433AD14AB1C74006FA05F547EA050057
:102EF00026FA04F42043C1072FD54046494603B0C3
:102F0000BDE8F08F40F2FF70814243D1002D4FF0B9
:102F100000001EDA0021BDE7342A19D84FF0FF3136
:102F20002746C2F11405C2F1340401FA05FE01FA84
:102F300004F0A2F1140C40EA0E0021FA0CFE40EA63
:102F40000E00A14027EA010126EA0000014307D054
:102F50000020554903B0BDE8F08F0020002199E71B
:102F600000204AB1E74006FA0CFC47EA0C0426FAB6
:102F700005F52C43E207ECD503F0004343F0FF4195
:102F800041F4E00186E740F2FE3399424FF0000041
:102F9000DFDDBFE740F6FF70814271D1002DA7F25F
:102FA000FF332CDB342BD3D84FF0FF322746C3F14D
:102FB0003400C3F1140402FA04FC02FA00F1A3F194
:102FC000140541EA0C0122FA05FC41EA0C01824099
:102FD00027EA020226EA01010A43B9D1002B48D0B0
:102FE000C74006FA05F547EA050026FA04F420432F
:102FF00010F0010F4FF00000ABD02C494AE7342B02
:10300000ABD84FF0FF322746C3F13400C3F11404AC
:1030100002FA04FC02FA00F1A3F1140541EA0C01E2
:1030200022FA05FC41EA0C01824027EA020226EA64
:1030300001010A4391D1FBB1C74006FA05F547EA01
:10304000050026FA04F4204310F0010F4FF00000B1
:103050003FF460AF4FF000411CE7002BFFF678AF64
:1030600022462B464046494603B0BDE8F04FFFF7E5
:103070006BBB00200D490DE700204FF0004109E730
:1030800040F2FF77280DB84211467FF4D1AE40F2EE
:10309000FE339A424FF000007FF73CAF59E700BF84
:1030A0000000F03F0000F0BF0000F07F0000F0FFE4
:1030B00086B003B451FC0804CDE9020151FC0904B7
:1030C000CDE9040151EC0A04CDE9060103BCF04747
:1030D000BDE800504EEC00C4BDE800504EEC01C409
:1030E000BDE800504EEC02C400BD000000B5FFF783
:1030F000DFFF02E010FE30F4F8D441EC100443ECA2
:10310000112400EE010410EE010480EE200451ECC5
:103110001004704700B5FFF7CBFF02E010FE30F45B
:10312000F8D441EC100443EC112400EE010410EE3D
:10313000210480EE200451EC3004704700B5FFF705
:10314000B7FF02E010FE30F4F8D410B541EC1004E3
:1031500043EC112451EC040453EC0524A0FB024C75
:103160005FF0000EE0FB03CEE1FB02CE4CEC20440E
:103170000024E1FB03E444EC30E480EE200451EC55
:10318000500410BD00B5FFF793FF02E010FE30F4CD
:10319000F8D441EC100443EC112451EC2104A0FBC1
:1031A00001126FEA820252FB100052FB12F252FB34
:1031B0001000A0EBD07C53EC04245CFB13F153EC27
:1031C0001524A1FB022001FB030053EC4424A2EBD5
:1031D000000050FB1CF24FEA111312EB017043EB9D
:1031E000E27140EA515020EA915020F0070053EC80
:1031F0007524A0FB023C53EC752400FB03CC01FBBF
:1032000002CC53EC0424ACEB824C40EA5C70A0F19D
:10321000010041EC400480EE200451EC7004704742
:1032200000B5FFF745FF02E010FE30F4F8D441ECA2
:10323000100480EE220410EEB204704700B5FFF7D0
:1032400037FF02E010FE30F4F8D440EC700400EEDA
:10325000010410EE210480EE200451EC300470478C
:1032600000B5FFF725FF02E010FE30F4F8D440EC83
:10327000600400EE010410EE210480EE200451EC05
:103280003004704700B5FFF713FF02E010FE30F482
:10329000F8D441EC800400EE010410EE010480EE4D
:1032A000400410EE1304704700B5FFF701FF02E081
:1032B00010FE30F4F8D441EC800400EE010410EE6E
:1032C000010480EE400410EE3304704700B5FFF7B0
:1032D000EFFE02E010FE30F4F8D441EC100443ECB1
:1032E000112400EE010410EE3004C0F300707047AA
:1032F00000B5FFF7DDFE02E010FE30F4F8D441EC3B
:10330000100443EC112400EE010410EE3004C0F36D
:103310008070704700B5FFF7CBFE02E010FE30F47E
:10332000F8D443EC102441EC110400EE010410EE3B
:1033300030F48CBF01200020704700BF00B5FFF7BC
:10334000B7FE02E010FE30F4F8D443EC102441EC58
:10335000110400EE010410EE30F42CBF0120002017
:10336000704700BF00B5FFF7A3FE02E010FE30F487
:10337000F8D441EC100443EC112400EE010410EEEB
:1033800030F42CBF01200020704700BF00B5FFF7CC
:103390008FFE02E010FE30F4F8D441EC100443EC50
:1033A000112400EE010410EE30F48CBF0120002047
:1033B000704700BF404261EB410140F2F334B1FA83
:1033C00081F20C2A0CD2153211FA02F3C2F120025A
:1033D000D04021FA02F12244584141EB025170479A
:1033E00069B1C2F12B0230FA02F3C2F1200291401E
:1033F00090401943A4EB020201EB02517047010017
:103400004FF00000A4F12004D9D17047012767F3E1
:103410001F5117FA03F817D0A0FB080701FB08712A
:10342000A1FB06785FEAD8469219A6FB047806FB52
:103430000588090351EA1051D7EB003061EB080110
:10344000A94238BF70470BE00C33012717FA03F885
:103450000FD0A0FB080701FB0871A94238BF7047D5
:1034600008BFA04238BF7047001B61EB0501013265
:10347000704703F1200311FA03F6D3F12003D8407B
:10348000D9403043704700000000000000000000F9
:103490000453B1086018850FC8E5F22A6E07271E8D
:1034A0000D12B2210412572F12557CBCDA30723F34
:1034B00017A717A55531994E9D0DBF0AEEE0AB5FDA
:1034C000E3EF6D9C7636AD6F697BCCE33D62BD7EEC
:1034D000F0810682F3FA428F37D5B78A5313C89E1C
:1034E0007FABB320491570AF000000000000000062
:1034F000025E88155580FF00907806B1A602FE0195
:10350000DC4E21F0EB88FB027A7C801F1615F80355
:103510003C5DA9D110A9F304AA466CF5C146EE059D
:10352000FF65E4EB09F0E70613C00C9EC3A6E007B5
:10353000E1BFEC91C46CD808D5AF5EFFDC43CF0986
:10354000466A72E4D72DC50A237E6E197B2CBA0B0E
:10355000BFF571648741AE0C61DFB88CB86EA10D08
:1035600009A9856DC5B5930E3153B1086018850F53
:103570003071E498359875105915550580FF0F0086
:1035800009C3EB8F80FB2F00B1910E9A82F34F009D
:103590001FE7FD2287E76F00C3A09A298FD78F000E
:1035A0004F4366AC9BC3AF00412A83A9ADABCF00AC
:1035B0004FB7B41EC68FEF00B6815F09E66F0F01EB
:1035C000678589660E4C2F011A52DA3240244F016A
:1035D000483A9B6A7CF86E01FF81B709C4C88E0126
:1035E0009C8DBC0B1895AE017010DA6B795DCE0125
:1035F0003A3BE224E921EE0138739533427FECA097
:103600003114FAF5BD8689916B02FAE6E0F29183F6
:10361000E682120713A85177212621686AB2736ADD
:103620009D0DBF0AEEE0AB5F19B4E0B71CB66A545B
:103630009596E53DEF07A548D1CBE555DC0E4E3C10
:10364000CE68ADE839B5A432CB3CFA96D9569A2863
:10365000C9B21CA1F9FCAE21864B6BE58AD2F016EB
:103660000453B1086018850F02C00C9EC3A6E00782
:103670000000000000000000AC79CFD1F71772B154
:10368000293BAAB84FEAC12040F00040490043F16D
:10369000200340F20001C3F6F071C3F10B0320FADE
:1036A00003F038BF7047404261F1000170475FEAA4
:1036B000D17CC1F30A53A3F2FF330C2B62DA13F16E
:1036C000200FDFDD2DE9F0413C4C70CC4FF00002C3
:1036D000FFF79CFE1CF0010F04D06FEA0202201AD3
:1036E00065EB010102F2FE3C40F2FE739C455CD2A8
:1036F0000A0F334B03EBC2030CCB02F03F0545F03E
:103700004005801A99410A0E2E4B03EBC20318CBD9
:1037100002F580725543C01AA1414A0D2A4B03EBB2
:10372000C20318CB124402F5805205FB0255C01AA1
:10373000A1418A0252EA905242F1000282FB023415
:103740005B0D53EAC423C01841EB545184FB02348F
:103750004FF0553383FB043454FB11F304EB930413
:1037600010EB440241EBE473E900A1FB0240C1FB12
:103770000301400A50EBC1504FEA512151EB0C516B
:10378000BDE8F081B3F5806F07D150EA01320CBF7C
:1037900021EAE17141F400217047002000211CF072
:1037A000010F08BFC7F6F07170474FF000004FF0EF
:1037B0000001A8BFC7F6F071BDE8F08178360010AF
:1037C00088340010E83400107835001040F2000111
:1037D000CFF6F0710020704750EA013218BF41F473
:1037E000002170477FEAA65540F019814FF48054BC
:1037F00020E18CEA11331B0640F0EE80BCF1000F93
:1038000067D1C90451EA5031C004B1FA81F4202CC7
:103810004BD20125A540A0FB052301FB0533A0FBEE
:1038200003C5A1FB02C6E1FB6356B2EB152263F1AF
:103830000003B2EB066273EB1623A0FB06C7A1FBE5
:1038400005C8E1FB66784FF05535A7FB05C65FF06C
:10385000000CE8FB056C16EB0C064CF1000C12EBAF
:10386000963243F1000312EB8C4243EB9C3358FB3E
:1038700011F55FF0333755FB11F656FB17F8A5EB42
:10388000581756FB11F5C2F6802656FB15F507EBC7
:103890001537B2EB472063EBD751C4F58064A4F130
:1038A0001504FFF78CFDBDE8F081B0FA80F410FA42
:1038B00004F1A0FB01234FF00000B0EB132061F1F5
:1038C0000001C4F58064A4F13504FFF778FDBDE87C
:1038D000F081890451EA90318004404261EB41015A
:1038E000B1FA81F4202C4ED2013C0125A540A0FB69
:1038F000052301FB0533A0FB03C5A1FB02C6E1FBC9
:10390000635612EB152243F1000312EB066253EBF0
:103910001623A0FB06C7A1FB05C8E1FB66784FF0A4
:103920005535A7FB05C65FF0000CE8FB056C16EBF0
:103930000C064CF1000C12EB963243F1000312EB33
:103940008C4243EB9C3358FB11F55FF0333755FB4A
:1039500011F656FB17F805EB581756FB11F5C2F692
:10396000802656FB15F507EB153712EB472043EB86
:10397000D751C4F58064A4F11504FFF720FD41F090
:103980000041BDE8F081B0FA80F410FA04F1A0FB28
:1039900001234FEA1320C4F58064A4F13504FFF736
:1039A0000EFD91F00041BDE8F0815FEA410CBFF4EB
:1039B0000DAF5FEA5C5C3FF409AFACF2FF3CBCF5D5
:1039C000806F3FF409AF012262F31F512DE9F041EE
:1039D000BCEBEC7F3FF40DAF0C0C4E4D05EBC4057A
:1039E00095E80C0002F03F0505F14005A5FB000637
:1039F00005FB01616FEAE14404F01F04464D05EB4D
:103A0000C40560CD521943EB060304F58074A4FB92
:103A1000000604FB01667FEA26643FF4E3AE3F4DF7
:103A200005EBC40522CD521843EB050341F2010515
:103A300005EB44046404A4FB0050C4EBC401E4FBA4
:103A4000060180EAE17481EAE175A5FB0567A4FB44
:103A500005487F084FEA360616EB080647F10007CF
:103A60008C0254EA905444F10004801B61EB07017E
:103A700054FB14F555FB14F655FB15F74FF0553470
:103A800056FB14F6B6EB173610EB860041EBA67129
:103A9000101A63EB0101224A24CA1CF1010C0BDD50
:103AA000A2FB0C230024E5FB0C34121A8B4164F1B9
:103AB00000045FF080410CE0DCF1000CA2FB0C2361
:103AC0000024E5FB0C3482184B4144F100045FF004
:103AD00040414CB91C0013000022B1F100711CB927
:103AE0001C000023B1F10071B4FA84F5A5F11D06A4
:103AF000A1EB0651AC4013FA05F0C5F12005EB40EF
:103B00001C43EA401043C00A50EB445041EBD4211F
:103B1000BDE8F08178350010E834001078350010E9
:103B200078360010012956D001EBD1725210012ACB
:103B300007EE100A0B4645D0F0B50029B8BF033197
:103B4000891001290C4685B062D01946002BB8BFF8
:103B5000D91DC91001290D4642D01946002BB8BF06
:103B600003F10F01091101290E4654D01946002B0B
:103B7000B8BF03F11F01491101290F4651D0194661
:103B8000002BB8BF03F13F018911CDE90223019059
:103B9000FFF7C8FFDDE9022307EE900A17F0010FD7
:103BA00067EEA77A9DED017A38D1F60767EEA77A1E
:103BB00001D567EE877AED0767EEA77A12D567EE33
:103BC000877A0FE067EE077ADB0748BF67EE877AF0
:103BD00017EE900A704707EE900A17EE900A7047AA
:103BE000F0EE477AE00767EEA77A01D567EE877AAD
:103BF00067EEA77AD10748BF67EE877ADA0767EEE4
:103C0000A77A01D567EE877A17EE900A05B0F0BD66
:103C1000F0EE477AECE7F0EE477ACCE767EE877A8A
:103C2000C3E7F0EE477AC0E710B5021E0C4682B03B
:103C300014DAC1F3C7537F3B172B0CD80120C3F113
:103C4000170C00FA0CF00138084204D173B321FAC2
:103C50000CF1CB072AD402F10042104607EE904A3D
:103C6000FDEEE77A12F0FF4317EE901A05D0B3F19C
:103C7000FF4F02D0C2F3160323B301B301F12003B7
:103C8000402B2FD90AF0CCFBFFF78FFE02460B46E4
:103C90002046CDE900230AF0C3FBDDE90023FFF74E
:103CA00051FAFFF704FDFFF7BFFA06E0214602F1E3
:103CB0000040FFF7B9FF00F1004002B010BD4FF027
:103CC0007E50FAE7D20D7F3A01F3080101FB02F3BF
:103CD00003F17F02002A15DDFE2A15DCDB0503F166
:103CE0007E50EAE7002908DA07EE100AF7EE007ABC
:103CF000C7EE877A17EE900A494202B0BDE810403D
:103D0000FFF710BF0020D8E74FF0FF40D5E700BF16
:103D1000C0F3C7530246A3B17F3B0CD4162B0FDC74
:103D20000120C3F117039840431ED10F01FB03226A
:103D3000404210407047002801DA034870470020D5
:103D4000704700F000407047000080BF08B500F0E9
:103D5000EBF8DFED047A07EE100A67EE277A17EE2C
:103D6000900A08BDD95BDE3E07EE900AB7EE007AF6
:103D7000F4EE477AF1EE10FA2DD011F0FF420B4627
:103D800026D0FFEE006AF4EE667AF1EE10FA10B576
:103D900082B021D1B2F1FF4F67D0CA0DFF2A43D0C4
:103DA0005D4812F0FF020CD07F3A64D4162A08DC7A
:103DB0004FF0010CC2F117020CFA02F2013A1A425A
:103DC00059D117EE900A02B0BDE81040FFF72CBFA2
:103DD00017EE100A7047704710F0FF4F19D10029F5
:103DE0004FEAD1522ADB7F3A172A24D80121C2F1A7
:103DF00017008140013919421DD1CAB39FED477A9E
:103E000023FA00F010F0010F47FE277A17EE900A10
:103E100008E04FEAD05CBCF1FF0F45D1002B0ADB74
:103E20004FF0FF4002B010BD40F27F1C5FFA8CFCE7
:103E3000BCF17E0FF4D8002002B010BDD2B27F3AA0
:103E4000172AEDD80121C2F1170C01FA0CF1013942
:103E50001942E5D122B123FA0CFC1CF0010FDFD08E
:103E600000F0004040F0FF40DCE717EE100AD9E711
:103E700017EE900AD6E70028D2DB17EE900A0C4620
:103E80000AF0CEFAFFF791FD02460B462046CDE937
:103E900000230AF0C5FADDE90023FFF753F9FFF725
:103EA00006FCFFF7C1F9BDE740F2FF1EF4454FEAFB
:103EB000D3520AD0FF2AB9D072457FF472AF5FFAAD
:103EC0008CFCBCF17E0FABD9B5E7002B10DB7F3A41
:103ED000172AA5D80121C2F11700814001391942E2
:103EE0009ED11AB123FA00F0C20799D50C4899E780
:103EF000D2B27F3A172A9ED80121C2F11700814021
:103F00000139194297D11AB123FA00F0C30792D5AB
:103F10004FF0004086E700BF000080BF00000000B7
:103F2000000080FF00000000B0F1FF4F3ED2C1153D
:103F30003ED04FF0010262F3DF5038BF400026A3AD
:103F400093EC034AAFF21C0303EB104323F0070387
:103F5000D3E9002300FB02F040EC103AFAEEC00A6D
:103F600020EEA01A61F17E0160EE811AC90521EEF2
:103F7000012A40F6FC3221EE041AC5F6B90261EEC0
:103F8000A41A51FB12F122EE052A03EE901A71EEEB
:103F9000C21AFAEEC53A31EE611A70EEC10A30EE7D
:103FA000200A30EE230A10EE100A704705DC0BD011
:103FB00010F1FF4F09D310F5000F40F4800003D833
:103FC00040F20000CFF6C070704740F20000CFF61C
:103FD00080707047AFF300800000003FABAAAA3E9C
:103FE0000000803E000000005501000001CB92BEA1
:103FF00048010000C3C87DBE3B010000685F54BE9D
:104000002F010000C7992CBE250100002C3C0ABEE0
:104010001A0100002F1AC6BD11010000C2AC83BDF9
:1040200008010000D814FCBC0001000000000000E2
:10403000F8000000EC0A023DF10000008E51773DCF
:10404000EA0000009806B83DE40000003B39ED3D71
:10405000DD000000088B163ED800000003FA2D3E5C
:10406000D2000000D7D24A3ECD000000DE7F633E82
:10407000C8000000E3C87C3EC3000000E65A8B3E47
:10408000BF00000084F7953EBA0000006E8CA33E8E
:10409000B6000000EFADAE3EB2000000C40EBA3E66
:1040A000AE000000CDB1C53EAB0000005F99CE3E32
:1040B0009A4238BF88547047704700BF2DE9F04FCF
:1040C00083B00F461146DDE90EB292079846DDE94E
:1040D0000C93064629D00D469BB109EB030405EB72
:1040E000040A01950D460D93AAEB040214F8010D84
:1040F00043463946B047A145F6D129460D9B019D5F
:104100001D440F9B9B070CD56C1AA34509D92A4661
:104110004346394620200134B0475C4505F101058E
:10412000F5D3284603B0BDE8F08F5B4515D28A462B
:104130001C468946ABEB03050D44524643463946BF
:1041400020200AF1010AB047AA45F6D14946234684
:10415000DDF83090002CC0D1E3E70D46002BBCD138
:10416000DFE700BF2DE9F04F0F460F9906469DF897
:104170002C008D079046DDE90CA299468346099CE8
:10418000DDF828C00E9B49D4002B42D1944545D27E
:1041900001F0010504F1FF3E3020E64405E00CF19A
:1041A000010C62450EF8010F02D9BCF1200FF6D1C7
:1041B000002D00F08780634530D9601E4FF0300E2F
:1041C000604405E00CF1010C9C4500F801EF25D09E
:1041D000BCF1200FF6D1CD060ED5480551D462456D
:1041E00064D0634562D0BAF1100F4DD0BAF1020F1E
:1041F00055D0BCF1200F2DD12022CDE90B310A92F0
:104200004B464246394630460994BDE8F04FFFF729
:1042100055BF11F001052ED19445BBD3CD061ED557
:104220004805E0D4BCF1000FD9D1BAF1100F5FD02E
:10423000BAF1020F74D030224FF0010C2270BBF1A2
:10424000000F12D1480742D52B2204F80C200CF1A4
:104250000102D2E762460CF1010C3020A054BCF1FF
:10426000200FC9D0BBF1000FECD02D2204F80C2098
:104270000CF10102C1E798B3944503F1FF3389D3F0
:1042800099E7BAF1100FB7D18D063DD5BCF1200FDB
:10429000B2D0582204F80C200CF1010CA9E7BCF1B3
:1042A000200FA9D062460CF1010C08E0BCF101021C
:1042B000BBD0BAF1100F35D0BAF1020FCDD16220C8
:1042C000A05496E7CD06CAD5480588D58BE70A07DE
:1042D00049BF2022624604F80C200CF101028CE751
:1042E00011F00C0F00D0013B9445FFF453AF62E78F
:1042F0008A0613D47822227030224FF0020C6270AA
:10430000BBF1000F9ED0B0E7BCF1200F3FF474AFBB
:10431000782204F80C200CF1010C6AE75822EAE735
:104320006222E8E78D06ACF1020004D54FF0580E8A
:1043300004F800E091E74FF0780E04F800E08CE715
:1043400000B9704701F078BB10B1D1E900311847CE
:10435000704700BF000000002DE9F04F97B09DEDC1
:10436000207BDDE9225B8046894651EC170B9A469B
:10437000249B0C92079302460B468DED047BFEF7BF
:10438000A9FF002840F0E381DDE904014FF0FF328E
:104390006FF48013FEF7C2FF002840F0CB80DDE908
:1043A00004014FF0FF32B24BFEF7F4FF002840F05B
:1043B0009F80DDE90467AAA3D3E90023304639468C
:1043C000FEF7E8FF002840F08280A7A3D3E900238E
:1043D00030463946FEF7A2FF002878D130463946EC
:1043E00000220023FEF79AFF002840F098800D90ED
:1043F000079B302113F4806F08BF06250EAA2B46B9
:10440000A5F1200605E0013BB34202F8011B00F0D4
:104410006581092BF7D81E46ED1ADDE90401FEF788
:1044200035FF944B044603EBC60393ED007B8DED03
:10443000087BFEF707FF02460B46DDE90401FEF7A5
:104440006DFEDDE90823FEF77DFECDE90A01FEF7EA
:104450002FFF0746FEF708FF02460B46DDE90A017B
:10446000FEF75CFE0022844BCDE90A01FEF792FFC5
:10447000002800F0888001373846FEF7F5FE024636
:104480000B46DDE90801FEF75DFF08B100270134A6
:10449000002E00F088800DF13703DFF8F0C15819C5
:1044A0000DE0ACFB0721C90801EB8102A7EB42023A
:1044B0003032092F00F8012F40F2FB800F46202DEB
:1044C00006F1FF3605F10105EBD1202586E0079BBB
:1044D0009DED047BCDE923B34946534640460C9AF3
:1044E0008DED207B229517B0BDE8F04F00F080B92C
:1044F000079B494658074CBF04230323404621939A
:104500005346079A48BF5D4CCDE922B258BF5C4C78
:104510000C9A209417B0BDE8F04FFFF7CFBD3B4693
:10452000324600200021FEF7F9FD0123CDE9040108
:104530000D935DE7079B03F002029C07049200F0D5
:10454000F4800C9F3D464F4E341D14F8010D2A4651
:1045500053464946C047A64205F10105F5D1049BE3
:104560003C1D63B10C9D631B9B4508D922465346F5
:10457000494620200134C047631B9B45F6D820469E
:1045800017B0BDE8F08F0022DDE90A013A4BFEF7D3
:10459000C5FE00287FF47CAF002F40F0C2800137B9
:1045A000002E7FF478AF2046FEF74CFE02460B4605
:1045B000DDE90401FEF7B2FD00222F4B06460F464F
:1045C000FEF7ACFE40B93046394600222A4BFEF7D2
:1045D000E1FE002800F0A1800DF137032A485919A7
:1045E0000EE080FB0476C2EBA60202EB8206A4EB8F
:1045F000460630361446013501F8016F002A47D0CF
:10460000202D4FEAE472ECD1079A02F00302012A4E
:1046100014D1BBF1000F11D00D9A002A60D00BF11C
:10462000FF3BBBF1200F09D930222B4404E00135B8
:104630005D4503F8012F31D2202DF8D1079B0EAC38
:10464000CDE902B300945346494640460C9A019581
:10465000FFF734FD0446204617B0BDE8F08F00BFD9
:104660000000000065CDCD410000000065CDCDC14A
:10467000FFFFEF7F88EB00100000E03F20EA001012
:1046800028EA001030EA001067666666CDCCCCCC14
:10469000079A02F00302012A00F09680202DCDD067
:1046A0000D9B3BB32D220DEB050383F8382001351C
:1046B000C4E7202D3FF409AF30212E445A1905E0FC
:1046C0000135202D02F8011F3FF4FFAEAE42F7D1B5
:1046D0002E226E44013586F838207FE720259CE69F
:1046E000079A12F00C0F5AD00BF1FF3BAB459BD849
:1046F000202DA3D0079B5A0706D52B220DEB0503CF
:1047000083F83820013599E71B0797D520220DEB58
:10471000050383F83820013590E7013424F00104C3
:104720005AE7F9077FF5B4AE39E7BBF1040F7FF61E
:1047300008AF0C9B1D46043B03EB0B072A46534670
:10474000494620200135C047AF42F7D1FAE6079B22
:1047500003F002029D07049225D00C9F3D46224E95
:10476000F41C14F8010D2A4653464946C047A64298
:1047700005F10105F5D1049BFC1C002B3FF4FFAEB5
:104780000C9D631B9B457FF6FAAE22465346494675
:1047900020200134C047631B9B45F6D8EFE6AB45AC
:1047A0003FF642AF4AE7BBF1030FD6D90C9B1D463B
:1047B000033B03EB0B072A465346494620200135AD
:1047C000C047BD42F7D1C9E7BBF1000F3FF466AF68
:1047D0000D9A002A84D00BF1FF3B5D45FFF424AF16
:1047E000202D7FF45FAF29E72CEA001000000000C5
:1047F0002DE9F04F9FB01E46DDE928ABDDE92B988F
:104800002A9B04460D460B920A9352465B4650463D
:104810005946FEF75FFD002840F0C68050465946D5
:104820004FF0FF327B4BFEF7B5FD002840F0BC8017
:10483000504659464FF0FF326FF48013FEF76EFD7D
:10484000002840F0B1805046594600220023FEF770
:1048500065FD002840F0DD81CDE908ABDDE90812F7
:1048600018F480600B460F4608F400610C92149116
:10487000159040F0A880134340F0D080002940F00C
:10488000EC8106230A9318F00202109240F0DD81B9
:104890004B46042B38BF04230E920422043B129291
:1048A00014935046594600220023FEF737FD002896
:1048B00040F02A829DED087B149B0B9A03930A9B80
:1048C0008DED007B029328F4006304932946334660
:1048D0002046FFF741FD024618F0200F33462946D7
:1048E0000CBF6520452002F10108A047129B0DF185
:1048F000580A03F1FF3B0E9B002283EAE37C5046FB
:10490000DFF814E10B9FACEBE37CD90FCDF82080EE
:1049100002E0202AC44610D0AEFB0C384FEAD8087B
:1049200008EB8803ACEB430301303033BCF1090FD3
:1049300002F1010200F8013CEBD805234FF0000C16
:1049400006930A23DDF82080CDE90121CDE9033C5F
:10495000CDF800A03346424629462046CDF814B093
:10496000FFF700FC109B8246D3B1A0EB0708C145BE
:1049700016D907EB080233462946202008F1010822
:10498000A047C145F5D87B1E4B44C7F10102A3EBFC
:104990000A035244914538BF00230AF1010A9A44A0
:1049A00050461FB0BDE8F08F334629462046CDE97A
:1049B00028AB0A9CCDE92B980B9A2A941FB0BDE82E
:1049C000F04FFFF7C9BC57EA020329D100293FF491
:1049D0005AAF00230E930A9B0E9A934200F3BA81BA
:1049E00000275046594600220023FEF797FC002876
:1049F00040F015819DED087B28F4006343F480634B
:104A00002C938DED287B334629462046CDE92A7923
:104A10000B9AD3E7FFFFEF7FCDCCCCCC06230A93D4
:104A20000C9BC3F30A50A0F2FF30FEF70BFCB2A3BD
:104A3000D3E90023FEF786FBB1A3D3E90023FEF7F9
:104A400059FB0C9BCDE90E01C3F3130343F07F51D7
:104A500038460022A24B41F44011FEF75FFB94A3BD
:104A6000D3E90023FEF76EFB02460B46DDE90E019B
:104A7000FEF740FBFEF70AFC0E90FEF7E3FB8EA369
:104A8000D3E90023CDE90C01FEF75CFB0022954B36
:104A9000FEF730FBFEF7FAFB89A3D3E900230746B4
:104AA000DDE90C01FEF74EFBCDE90C013846FEF7BF
:104AB000C9FB85A3D3E90023FEF744FB02460B465E
:104AC000DDE90C01FEF72AFB02460B46CDE90C237B
:104AD000FEF738FBCDE91001DDE90C0102460B467B
:104AE000FEF708FB0022CDE91201DDE910017E4B43
:104AF000FEF74CFB00227D4BFEF7FCFA02460B460C
:104B0000DDE91001FEF742FB0022794BFEF7F2FAD5
:104B100002460B46DDE91001FEF738FBCDE9100136
:104B2000DDE90C2300204FF08041FEF7F7FA024642
:104B30000B46DDE91001FEF7DDFA02460B46DDE922
:104B40001201FEF723FB00226A4BFEF7D3FA07F2AD
:104B5000FF3C00224FEA0C53FEF7F4FA02460B46E4
:104B6000DDE90801CDE90C23FEF7D8FB50B1DDE902
:104B70000C010E9B0022013B0E935C4BFEF706FBE3
:104B8000CDE90C01DDE90C010E9B02466333C62B17
:104B900008F002031093149B2DD8002B5FD0042340
:104BA00012930A433FF417AFDDE9080148A3D3E9A4
:104BB0000023FEF7DBFB48B1DDE9080146A3D3E99A
:104BC0000023FEF7ABFB00287FF405AF0A9B002B08
:104BD00051D0159A002A00F0AC80013B0A93129B39
:104BE000994505D9109B002B00F0AF80022310934C
:104BF0000023149344E02BBBB9F1050F4FD908F003
:104C00000203002B49D105231293A9F10503149344
:104C10003AE00BF10043CDF820A009931EE628F4FA
:104C2000006343F480632046CDE92A792C93334610
:104C3000DDE908673446294607F10045CDE92845F6
:104C40000B9ABBE605231293ABE7022200231092D6
:104C50000422149312920E9323E60527C1E6B9F1BC
:104C6000040F1FD9109B002B77D104231293A9F1B5
:104C70000403149304E0129B99455FD80A9B149394
:104C80000E9B002B3FF40DAEDDE90801DDE90C239E
:104C9000FEF77CFACDE9080103E602231093052311
:104CA0001293F1E704231293EAE700BFAFF3008009
:104CB00061436F63A787D23F71A379094F930A407D
:104CC0001655B5BBB16B0240EF39FAFE422EE63FF6
:104CD0002D431CEBE2361A3F0000000080842E4179
:104CE0000000F83F0000E03F00002C40000024409E
:104CF000000018400000F03FFB799F501344D33F61
:104D0000B3C8608B288AC63F149BDDE908A70393CC
:104D10000A9B07F1004B029328F400630B9A04935B
:104D2000294633462046CDE900ABFFF715FB024686
:104D3000D2E5129B994515D81492A1E7109B23B197
:104D40000A9B1493022310939AE7129BA9EB030387
:104D5000149395E79B1A5F1E43E6042312930223E4
:104D600010938DE7109B002BEFD002231492109329
:104D700086E700BF2DE9F04F91469A4C9A4AB1F16F
:104D8000000A9BB018BF834614601878974ADDF874
:104D9000908008BF9346002800F08A821D460026B6
:104DA000CDF8209008E032465146089BD84701369E
:104DB0002878002800F0C780252805F10105F2D1E8
:104DC00000222B4613F8011BA1F1200010280AD85D
:104DD000DFE800F03F09093B09090909090909371A
:104DE000093309092F00A1F13000092840F2898018
:104DF0002A2900F0E98000242E2900F09480002761
:104E0000A1F1680012282CD8DFE810F04E012B0029
:104E100049012B0040012B002B002B002B002B0005
:104E20002B002B0027002B002B002B002B002B002E
:104E300027001D4642F00102C3E71D4642F0020270
:104E4000BFE71D4642F00402BBE71D4642F01002D8
:104E5000B7E71D4642F00802B3E7697842F4807272
:104E6000013367291D467ED8242940F2B880A1F17C
:104E70002503422B00F2B380DFE813F05101B100AB
:104E8000B100B100B100B100B100B100B100B1009A
:104E9000B100B100B100B100B100B100B100B1008A
:104EA000B100B100B100B100B100B100B100B1007A
:104EB000B100B100B100B100B100B1001E013A0172
:104EC0001E01B100B100B100B100B100B100B100EC
:104ED000B100B100B100B100B100B100B100B1004A
:104EE000B100B401B100B100B100B100B100B10036
:104EF000B100B100B100B4015801B4011E013A0182
:104F00001E01002404EB840401EB440419781D46BF
:104F1000A1F130000928A4F1300403F10103F1D913
:104F20002E297FF46CAF69781846A1F13007092F5C
:104F300042F4806240F225812A2900F032811D4628
:104F4000002701335CE73446DDF82090B14501D8F5
:104F500009F1FF364B46324651460020D8472046DD
:104F60001BB0BDE8F08FA1F16903DBB20F2B36D87F
:104F7000012049F2410C984010EA0C0040F0F48006
:104F80000A2B35D0072B2AD158F8041B002940F0F2
:104F9000108122F0100412F4806144F0210400F02A
:104FA0000A8112AA082305931023CDE90020324676
:104FB0000694049703930023029351465846089B96
:104FC000FFF7D0F80646F3E658F8044B6978002C52
:104FD0001D46BCBF42F00202644201330CE70846A2
:104FE000E1E600BF754D0010B85A0020B94000102E
:104FF00058F8049B002F99F8000014BF3B464FF06F
:10500000FF33002800F08283494603EB090C04E0DB
:1050100011F8013F002B00F043818C45F8D1ACEB37
:105020000901530540F12081B94228BF394612F0E9
:10503000020300F083820223CDE909483246884604
:10504000089C37440B9307E023465146D84719F88C
:10505000010F013610B13246B742F5D10B9B4146E4
:10506000099CDDF82880002B3FF4A2AE37468C4225
:105070007FF69EAE2644089C761A3A462346514651
:1050800020200137D847B742F7D191E669786C29DB
:105090007FF4E4AEA97842F44072EB1CE1E6697853
:1050A00042F400720133DCE66978682900F0FB8085
:1050B00042F080020133D4E6672900F0C980472915
:1050C00000F0CD80452900F0CC80CDE9034208F105
:1050D0000708029728F007083246F8E802675146A9
:1050E000CDE900675846089BFFF782FB06465FE65E
:1050F000462908BF42F02002CDE9034208F1070823
:10510000029728F007083246F8E802675146CDE9D1
:1051100000675846089BFFF71FF9064648E63246E7
:1051200051462520089BD847013641E608F1040383
:105130009207099306F1010740F1C38032465146B8
:1051400098F80000089BD847012C40F2B48126440F
:10515000089C3A462346514620200137D847B7429B
:10516000F7D1DDF8248023E66F2974D040F2418224
:10517000782900F086814FF00A0922F010024B4690
:1051800038E0002707EB870701EB4701A1F1300763
:1051900010F8011FA1F13003092BF3D90546431C78
:1051A0002EE658F8047BA97802356B1C27EAE777CE
:1051B00026E642F0210412AA944602E020283FF499
:1051C000F1AE01F00F03092B94BF303337330F29B1
:1051D0008CF8003000F101000CF1010C4FEA1111C4
:1051E000ECD8DFE6582966D0622940F089804FF07C
:1051F00002094B4612F4806C00F0D48022F00D02BC
:10520000099212F4007140F07B8112F4807008F171
:10521000040940F03882510640F13A8198F80010B4
:10522000002940F04A81099A22F010020992BCF14B
:10523000000F00F04281084612AA0999CDE9033710
:10524000CDE9054101900023009202933246A1E08E
:1052500042F4006239E74FF008094B46CAE742F4CE
:10526000006242F0200230E712F0020300F08C816D
:105270000223CDE909481F468846089C324623464A
:105280005146D84719F8010F01360028F6D13B46A0
:105290004146099CDDF82880002B3FF489ADE5E606
:1052A000A1EB0901BDE6A97842F0C002EB1CD8E5EC
:1052B000044606464AE64FF0100942F020024B46EB
:1052C00098E7012C40F2F180374606F1FF39CDF81E
:1052D0002880DDF82080A1443A46434651462020EC
:1052E0000137D8474F45F7D1DDF828803A4698F87E
:1052F00000005146089BD8472644DDF8248057E536
:1053000012F4806300F0C1804FF4806322F011003A
:1053100010F4007E4AD110F4807C08F1040940F0BA
:105320003781410600F1A980020640F1E381B8F916
:10533000002082EAE271A1EBE2711FFA81FED10F37
:105340000991002A00F05F81734612AA9646DFF8A1
:10535000A0830A9403E0BCF1200F23460FD0A8FBE2
:105360000314E40804EB8401A3EB41010EF1010EE8
:105370003031092B0CF1010C0EF8011CEBD80A9C02
:10538000099B0092CDE901C30A233246CDE90540CD
:105390000497039351465846089BFEF7E3FEC84620
:1053A000064605E522F00C0209922AE708F10708F3
:1053B00028F00708D8F8042058F808CBD10F5CEA89
:1053C000020E6CD0002A634602DA5B4262EB4202B4
:1053D0009146099312AA94464FF0000ECDE90A189F
:1053E000CDE90C470E960F9203E0BEF1200F3B462D
:1053F00030D04FF0CC3213EB0901BD4F41F1000129
:10540000A7FB014626F0030404EB9604091B5C1A73
:1054100002FB04F63A4669F1000802FB0866052221
:10542000A4FB077407F001082644A8FB024864188F
:105430000A2B0CF1010C4FEA570704F1300479F103
:1054400000090EF1010E0CF8014C47EAC6774FEA4D
:105450005609CAD27346DDE90A18DDE90C470E9EEB
:105460000F9ACDF824E0CDE901310A230092CDE96D
:1054700005403246049703939FE598F8002096462E
:105480005DE74FF010094B46B4E622F010003FE70D
:1054900011064CBFB8F80010D8F80010C0E6002B79
:1054A00040F042819946099394E73246514698F874
:1054B0000000089BD8473E4653E6099A0A9412F02A
:1054C000200F14BF4FF041084FF0610812AA944614
:1054D000A8F10A0802E0202871460FD0B1FBF3FEC4
:1054E00003FB1E14092C94BF3034444499428CF8B9
:1054F000004000F101000CF1010CECD20A9C9CE68A
:1055000008F1070828F00708D8F8042058F8081B05
:105510000A920A438E467BD1099A22F01002099220
:10552000BCF1000F74D0002012AA0999CDE9002027
:10553000CDE905413246CDE903373CE58C4298BFC1
:1055400001317FF679AD4FF48063CDE90994994636
:10555000A2190B97089F541A32463B465146202009
:105560000136D847A642F7D1DDE90A474B46DDF8B8
:10557000249099F8000000283FF41AAC611C002B1D
:105580003FF477AE002357E58C42DED8013170E658
:10559000D8F80020D10F002A00F0B38082EAE2732D
:1055A000A3EBE27312AA9446CDE90914DFF8408117
:1055B00003E0BEF1200F23460FD0A8FB0314E4083C
:1055C00004EB8401A3EB41010CF1010C3031092BF8
:1055D0000EF1010E0CF8011CEBD8DDE909140A23C9
:1055E0000092CDE905403246CDE901E104970393ED
:1055F000D0E6692922F0100040F0918012F4806317
:105600003FF486AE80E6002B3FF49FAE12AAB7E6C9
:10561000099ACDE90B8412F0200F14BF41216121BA
:10562000CDE90D76CDE90F3BCDF844A00027F0463B
:105630000A9C12AE0DF1480BA1F10A0A03E0202FDB
:1056400080460C4613D021464A460023404608F0C7
:105650000FFFD2B2092A94BF30325244C84574F1C8
:105660000004327007F1010706F10106E7D238465F
:10567000DDE90B845A460E9E0D9F0F9BDDF844A07A
:10568000DDF840B051E7D8F800E0BEF1000F0DD1D1
:1056900022F010020992BCF1000F07D012AA09985B
:1056A000CDE90337CDE905400191CCE5099A12F027
:1056B000200F14BF4120612012AA94460A92A0F143
:1056C0000A0202E02029C6460FD0BEFBF3F803FB16
:1056D00018E0092894BF303080189E458CF80000EF
:1056E00001F101010CF1010CECD20A9AD7E700BFDD
:1056F000CDCCCCCCD8F8002082EAE27EAEEBE27EC4
:105700001DE6002B3FF44EAF12AA68E712F4806149
:105710000ED012F0020114D001463746A7E44FF034
:105720000A0902464B4665E5002312AA09939AE648
:1057300012F002037FF49AAC002C7FF406AFFFF75F
:1057400037BB002C7FF4FFAEFFF732BB0CB400B5C3
:1057500085B00DF1180C5CF8043B0A46CDF800C08A
:1057600001460548CDF80CC0FFF704FB05B05DF815
:1057700004EB02B0704700BFB14000108C4610B57A
:1057800084B000930290134602A94FF0FF32034801
:10579000CDF80CC0FFF7EEFA04B010BD494300107D
:1057A00010B5094A84B014684CB1034600914FF01B
:1057B000FF3203A90548A047012004B010BD00F046
:1057C0007DF9204604B010BDB85A002041430010B6
:1057D00000BEFDE7704700BF08B5FFF7F9FF00BF47
:1057E00038B5064C064DFCF7A3FEAC4204D254F883
:1057F000043B9847AC42FAD338BD00BF20E5001007
:1058000024E50010036808461146184770B50546A0
:105810000846697D82B000294FD0002A25DD037833
:1058200014460A2B064622D0012C4FF0000E0DD054
:105830003246012312F801CF1946BCF10A0F03F1D9
:10584000010320D09C42F5D1744505DD2B68A4EB03
:105850000E0106EB0E009847311911F8013CA3F137
:105860000D03B3FA83F35B092B7502B070BD2B7D7A
:10587000002BD9D102212B6813489847012CEBD07B
:105880004FF0010ED4E712F8010C0D28DAD08E4546
:1058900006EB0E00A1EB0E0105DACDE900322B6814
:1058A0009847DDE90032CDE9003202212B68064835
:1058B0009847009B019A9E46C4E711462B6802B0A8
:1058C000BDE87040184700BFD8EB00100B685A1CA9
:1058D000802A0B440A60187100D0704730B50E4B17
:1058E0000C46186883B0A0B10D1D01E0006980B1BD
:1058F0000368002BFAD0094B1B680BB18342F5D12A
:10590000294622680190FFF781FF0198006900286D
:10591000EED1206003B030BDCC4D0020DC4D002026
:105920002DE9F04782B090461C460D460746FCF72D
:105930004FFC4FF0FF3C6FF000462E4A821841F1B9
:105940000003944576EB03013CBF624633462A4888
:1059500008F09AFD6B1C824640D00CB3274E284BB2
:105960001C68B4B1B8F1000F1CD1DFF89C8001E0D5
:10597000246974B12368002BFAD0D8F800300BB139
:105980009C42F5D120462A463946B0472469002C6E
:10599000F0D1BAF1000F26D1284602B0BDE8F08759
:1059A000184EDCE74FF00A09DFF85C8002E024695A
:1059B000002CEED02368002BF9D0D8F800300BB1C2
:1059C000A342F4D12A4639462046B0470122204658
:1059D0000DF107018DF80790B047E8E7384608F069
:1059E000D5FC0546B9E7044808F022FD284602B078
:1059F000BDE8F08740420F00D02200200D58001073
:105A0000CC4D002005580010DC4D0020084A1368DA
:105A100023B90AE003F110021B6933B18342F9D1C3
:105A200029B9186910601961704701B11060704799
:105A3000CC4D002000F070BAF0B583B006468DF86A
:105A40000700FCF7C5FB4FF0FF356FF00044174A25
:105A5000821841F10003954274EB03013CBF2346D9
:105A60002A46134808F010FD124B07461C689CB1EB
:105A7000114D01E024697CB12368002BFAD02B681A
:105A80000BB19C42F6D1204601220DF10701FFF730
:105A9000BDFE2469002CEFD117B9304603B0F0BD2C
:105AA000034808F0C5FC304603B0F0BD40420F008B
:105AB000D0220020CC4D0020DC4D002038B504461B
:105AC00008F064FC012305461A4620462946FFF7E4
:105AD00027FF084B1C682CB163682BB198472469D9
